:020000040800F2
:100000007008002091020008B1220008A92200080F
:10001000AD220008A9040008912500080000000096
:10002000000000000000000000000000B9220008ED
:10003000DD04000800000000B5220008BD22000811
:10004000AB020008AB020008AB020008AB020008DC
:10005000AB020008AB020008AB020008AB020008CC
:10006000AB020008AB020008AB020008AB020008BC
:10007000AB020008AB020008AB020008AB020008AC
:10008000AB020008AB020008AB020008AB0200089C
:10009000AD040008B9040008AB020008AB02000878
:1000A000AB020008AB020008AB020008AB0200087C
:1000B000AB020008AB020008AB020008AB0200086C
:1000C000AB020008AB020008AB020008AB0200085C
:1000D000AB020008AB020008AB020008AB0200084C
:1000E000AB020008AB020008AB020008AB0200083C
:1000F000AB020008AB020008AB020008AB0200082C
:10010000AB020008AB020008AB020008AB0200081B
:1001100091230008AB020008AB020008AB02000804
:10012000AB020008AB020008AB020008AB020008FB
:10013000AB0200080000000000000000AB02000855
:10014000C5040008D1040008AB020008AB02000897
:10015000AB020008AB020008AB020008AB020008CB
:10016000AB020008AB020008AB020008AB020008BB
:10017000AB020008AB020008AB0200080000000060
:1001800000000000AB0200080000000000000000BA
:10019000AB0200080000000000000000AB020008F5
:1001A000000000000000000000000000AB0200089A
:1001B000AB020008AB020008AB020008AB0200086B
:1001C000AB02000800F002F800F052F814A696E81E
:1001D000000CB244B344DA4501D100F049F8BAE862
:1001E0000F000FA696E83000A5EB040504EB060708
:1001F000AAEB0704A7F101074FEA15154FEA3414DB
:10020000A4F10104AC4201D300F032F813F0010F65
:1002100018BFFB1A43F0010300F001F8DBE71847B1
:100220002849000048490000103A24BF78C878C126
:10023000FAD8520724BF30C830C144BF04680C60EC
:1002400070470000704700000023002400250026AE
:10025000103A28BF78C1FBD8520728BF30C148BF29
:100260000B6070471FB504F091FB1FBD10B510BDAA
:1002700000F0E4F81146FFF7F5FF02F049FB00F04B
:1002800002F903B4FFF7F2FF03BC00F005F9000028
:100290000948804709480047FEE7FEE7FEE7FEE71A
:1002A000FEE7FEE7FEE7FEE7FEE7FEE70448054956
:1002B000054A064B704700007D230008C501000871
:1002C00070020020700800207004002070040020DC
:1002D00053EA020C00F069802DE9F04B4FF0000664
:1002E000002B1FBFB3FA83F503FA05F424FA05F6D1
:1002F0005E4012BF1643B2FA82F502FA05F4C5F168
:1003000020051EBF22FA05FC44EA0C04203556EAFB
:10031000044C4FEA144418BF641C4FF000084FF01F
:100320000009904271EB030C39D3002919BFB1FACF
:1003300081F701FA07F6B0FA80F700FA07F6C7F17D
:1003400020071EBF20FA07FC46EA0C062037B6FB42
:10035000F4FCA7EB0507103F07F01F0BCBF12006BD
:100360002CFA06F60CFA0BFB44BFB3460026202FEE
:10037000A4BF5E464FF0000B5BEA060C08BF4FF0CF
:10038000010B19EB0B0948EB0608ABFB027C06FBE3
:1003900002CC0BFB03CCC01B71EB0C01C1E70B467D
:1003A000024641464846BDE8F08B13B5084318BFE6
:1003B0004FF0FF300146AFF30080BDE81C407047AE
:1003C0004FF0000200B5134694469646203922BFEE
:1003D000A0E80C50A0E80C50B1F12001BFF4F7AF39
:1003E000090728BFA0E80C5048BF0CC05DF804EB1B
:1003F000890028BF40F8042B08BF704748BF20F889
:10040000022B11F0804F18BF00F8012B7047704786
:100410007047704710B500F009F8006810BD10B5BE
:10042000044600F003F8046010BD00000048704767
:100430001000002000487047100000207546FFF7AC
:10044000F9FFAE4605006946534620F00700854691
:1004500018B020B5FFF72AFFBDE820404FF0000696
:100460004FF000074FF000084FF0000BAC46ACE82F
:10047000C009ACE8C009ACE8C009ACE8C00921F08B
:1004800007018D46704710B50446AFF30080204643
:10049000BDE81040FFF7F5BE01491820ABBEFEE7EE
:1004A0002600020070470000FEE7000040F27810CE
:1004B000C2F2000000F088B940F27810C2F20000E9
:1004C00000F082B940F2A010C2F2000000F07CB946
:1004D00040F2A010C2F2000000F076B970470000B0
:1004E00090F82020013A012A08D8006800F114028F
:1004F0000020136819431160704700BF00F1240207
:1005000001204FF4802113681943116070470000E7
:1005100010B590F820E0D0F800C0AEF1010EBEF1A9
:10052000010FDCF808E011D81EF0E05F18D0CEF320
:1005300001640120A04018608B68DBB1D1F804E0B1
:10054000C86840EACE0040EA030E17E000F1240339
:1005500001204FF480211A681143196010BD00BFBB
:1005600000F1240301204FF400111A6811431960AF
:1005700010BD00BF0868CB6843EA405E0CF5C07050
:1005800000EB0413240140F804E00C69184640F81D
:10059000044F097D012903D1016841F48071016094
:1005A00050680121D8601068986000201A681143D3
:1005B000196010BD90F82020013A012A30D8B0B55A
:1005C00046F20060C4F20000026842F001020260DC
:1005D000026822F47C520260D1F814E0CC694A6AC5
:1005E0000368012C43EA022202600EF01F024FF062
:1005F000010303FA02F2C3696FEA020C23EA020361
:10060000C36113D02CBBC36803EA0C03C360CB687F
:100610008C8844EA034300EBCE0423640B4611E0CC
:10062000416A41F48021416201207047C36813434D
:10063000C3600B688C8844EA034300EBCE04236458
:1006400001F10C038C681B8843EA044300EBCE04E1
:10065000636443688D6943EA0204D1F810E0096AD3
:10066000002D08BF03EA0C0444604369BEF1000F8B
:1006700043EA020408BF03EA0C040129446102D1E1
:10068000C1691143C161016821F0010101600020CD
:10069000B0BD000070470000B0B590F82040013CAC
:1006A000012C7DD8D0F800C000290CBFDCF80C402C
:1006B000DCF81040A4077DD00CF5D8754FEA011C7A
:1006C00055F80C4014F00404946055F80CE005EB68
:1006D000011C19BF4FEADE0555604FEA5E551560F3
:1006E000DCF80050E64605F00205D5605EF8044FE0
:1006F00024075ABFDEF8004004F00F0408241461F8
:10070000DEF800400029C4F307249461DEF80050AD
:100710004FEA15455561DCF808201A70026802EBB3
:100720000112D2F8B8214FEA12225A70026802EB85
:100730000112D2F8B8214FEA12429A70026802EB15
:100740000112D2F8B8214FEA1262DA70026802EBA5
:100750000112D2F8BC211A71026802EB0112D2F820
:10076000BC214FEA12225A71026802EB0112D2F840
:10077000BC214FEA12429A71026802EB0112D2F8D0
:10078000BC214FEA1262DA7100680CBF00F10C0163
:1007900000F11001002020220B681A430A60B0BD4E
:1007A00000F1240101204FF480220B681A430A60F3
:1007B000B0BD00BF00F1240101204FF400120B680E
:1007C0001A430A60B0BD00002DE9F04F81B0044625
:1007D00000684669D0F804908768D0F80CB0D0F86B
:1007E00010A0D0F81880F10704D1002530071DD4DF
:1007F00024E000BFF90710D00121BA07816009D4B5
:10080000780700F1AF80380700F1B680204600F08D
:100810005FFB02E0204600F05DFB0025F80500F1DB
:100820008780F80300F1B180300707D51BF0100076
:1008300004D0206845F400751021C160700708D508
:100840001BF0080005D020680821C160204600F098
:10085000FFF9B00706D52068C068800702D020469F
:1008600000F0FAF9700607D51AF0100004D02068DD
:1008700045F4806510210161B00608D51AF0080022
:1008800005D0206808210161204600F0EDFAF0064D
:1008900006D520680069800702D0204600F0E6FAFD
:1008A000B00308D519F0100005D020681021416070
:1008B000204600F0DDFAF00308D519F0080005D055
:1008C000206808214160204600F00EFB300440F112
:1008D0009B805FEA497040F1948006F4807008EADA
:1008E000102028435FEA8871014648BF41F00201A9
:1008F000B20558BF01465FEA48700D4648BF45F053
:100900000405700558BF0D46300540F17A8018F097
:10091000700000F076801038000905286CD8DFE8F8
:1009200000F003655D61596945F0080564E000BFAA
:1009300020684FF48071BA0581600BD4780515D416
:1009400038051DD4204600F0C7FAF8037FF56CAFD8
:100950001BE000BF204600F0C1FAF8037FF564AF4A
:1009600013E000BF4FF4006558E700BF05F50055E0
:10097000F8037FF559AF08E04FF480554EE700BF0C
:1009800005F58045F8037FF54FAF20684FF48031BF
:10099000BA0381600AD4780310D4380314D42046F3
:1009A00000F09EFA30073FF541AF47E7204600F0E0
:1009B00099FA30073FF53AAF40E700BF05F500452B
:1009C00030073FF533AF39E705F5803530073FF5A0
:1009D0002DAF33E745F080050EE000BF45F0200560
:1009E0000AE000BF45F0400506E000BF45F01005F5
:1009F00002E000BF45F480752068816921F0700134
:100A0000816120680421416055B1606A40EA0501B6
:100A10002046616201B0BDE8F04FFFF73BBE00BF6A
:100A200001B0BDE8F08F0000002804BF012070472E
:100A3000B0B5044690F8200010B9204600F06EF8DA
:100A40002068016841F00101016000F08DFB05465E
:100A500020684168C90705D100F086FB401B0B28C0
:100A6000F6D310E0016821F00201016000F07CFB88
:100A7000054600BF2068416889070DD500F074FB6A
:100A8000401B0B28F6D3606A052140F400306062F9
:100A9000012084F82010B0BD217E0268012922F0D7
:100AA000800208BF80320260617E0268012922F064
:100AB000400208BF40320260A17E0268012922F094
:100AC000200208BF20320260E17E0268012922F084
:100AD000100218BF10320260217F0268012922F043
:100AE000080208BF08320260617F0268012922F013
:100AF000040208BF04320260D4E901C2D4E903351C
:100B000061691A432A431143ACF101021143C161E7
:100B100000200121606284F82010B0BDB0B586B01D
:100B2000006846F60002C4F2000200219042CDE9BE
:100B30000411CDE90211019134D046F20041C4F212
:100B40000001884240F0828040F2C811C2F20001E8
:100B50000A6843F64000C4F20200531C0B6052B90D
:100B600000210091016841F000710160016801F00D
:100B70000071009100990021009150F8101C15247B
:100B800041F0010140F8101C50F8100C142500F041
:100B900001000090009800204FF4C051C4F2020000
:100BA00038E000BF43F64000C4F202000091016843
:100BB00041F080610160016801F08061009100995D
:100BC00040F2C811C2F200010A68531C0B6052B90E
:100BD00000210091016841F000710160016801F09D
:100BE0000071009100990021009150F8101C4124DF
:100BF00041F0020140F8101C50F8100C402500F0A4
:100C00000200009000980020C4F2020000F580600D
:100C10004FF44051019102210291002103910321DF
:100C200004910921059101A900F0CEF9284600217F
:100C3000002200F027FC284600F012FC204600218C
:100C4000002200F01FFC204600F00AFC06B0B0BDF8
:100C500070470000000000002DE9F04F81B02DED3D
:100C6000068B82B040F2EC06C2F2000606F14802A2
:100C700006F110030021FFF70FFDB06C40F2700782
:100C8000C2F2000700F01F017970012940F25011F3
:100C90004FEA5012C2F20001BA7007D013280DD0EB
:100CA00002B0BDEC068B01B0BDE8F08FD2B231F8D6
:100CB0001230013321F812301328F1D1488A747CA4
:100CC00001304882317CC809C1F3840A61F30924E8
:100CD00003F013FB9FED5E9B41EC110BB0EE490A54
:100CE000F0EE690A02F01CF9B0EE40AA2046F0EEE0
:100CF00060AA03F002FB9FED580B59EC10BB5A465B
:100D00004B4603F049FB9FED568B53EC188B424644
:100D1000019303F087F802460B4651EC1A0B03F0DF
:100D20003BFBB0EE480A0446AAF10F00F0EE680A59
:100D30000D4602F08DF851EC100B22462B4603F0C5
:100D40002BFB03F03DF8B17CF47C7865C809C1F356
:100D5000840761F3092403F0D0FA41EC110BB0EEE3
:100D6000490AF0EE690A02F0DBF8B0EE40AA20462C
:100D7000F0EE60AA03F0C1FA5A464B4603F00CFBB2
:100D8000DDF804A04246534603F04CF802460B46F9
:100D900051EC1A0B03F000FBB0EE480A0446A7F131
:100DA0000F00F0EE680A0D4602F052F851EC100BFD
:100DB00022462B4603F0F0FA03F002F840F27001ED
:100DC000C2F200010861317D747DC809C1F3840657
:100DD00061F3092403F091FA41EC110BB0EE490ADA
:100DE000F0EE690A02F09CF8B0EE409A2046F0EE70
:100DF000609A03F082FA5A464B4603F0CDFA424617
:100E0000534603F00FF802460B4651EC190B03F062
:100E1000C3FAB0EE480A0446A6F10F00F0EE680AE5
:100E20000D4602F015F851EC100B22462B4603F04C
:100E3000B3FA02F0C5FF40F27001C2F2000188650A
:100E400002B0BDEC068B01B0BDE8F08F00BF00BF63
:100E5000000000000000F0BF000000000000503F54
:100E6000000000000000F03F7047000070470000E5
:100E700070470000B0B5044690F8200001281DD14D
:100E8000022084F820002068016821F0010101603F
:100E900000F06AF9054600BF20684068C00713D01B
:100EA00000F062F9401B0B28F6D3606A40F4003072
:100EB0006062052084F820000120B0BD606A40F423
:100EC000002060620120B0BD00206062B0BD000063
:100ED0007047000070470000704700007047000036
:100EE00070470000704700007047000070B5866DC5
:100EF000044600F039F994F83510022928D1054646
:100F00002068216C026822F016020260426922F019
:100F10008002426109B9A16C19B1016821F0080190
:100F20000160016821F00101016000BF20680068D4
:100F3000C00715D000F018F9401B0628F6D3202072
:100F40006065032084F83500002184F8341070BDFA
:100F5000802060650120002184F8341070BD00BF3E
:100F6000E06D3F2101FA00F0B060012084F8350007
:100F70000020002184F8341070BD000090F8351076
:100F8000022909D1052180F835100068016821F097
:100F900001010160002070478021416501207047F8
:100FA000B0B5044600F0E0F8054640F20000C2F299
:100FB00000000078611C18BF044400BF00F0D4F8A2
:100FC000401BA042FAD3B0BD2DE9F04F83B000F131
:100FD000200200F13E4741F60005009207F1FF773D
:100FE000C4F2020507224FEAB726A84208BF06222C
:100FF00000254FF000084FF00009062E38BF4FEAD9
:10100000B72201920AE000BF09F1010908F10208C4
:10101000B9F1100F05F1040500F0A2800F6801225C
:1010200002FA09FE17EA0E0AEED0D1F804C0032234
:101030000CF003077E1E02FA08F4012E6FEA040B7F
:1010400012D88468CE6804EA0B0406FA08F6344322
:101050008460446824EA0E06CCF3001404FA09F410
:101060002643466004E000BF032F01D103271EE0A2
:10107000C6688C6806EA0B0604FA08F42643022FB9
:10108000C66014D16FF00302009E02EA590756F8B9
:1010900007C005F01C040F220B69A2402CEA0202D3
:1010A000A3401A43F251D1F804C00CF003070268C0
:1010B00007FA08F302EA0B021A431CF4403F0260ED
:1010C000A2D0002243F644030292C4F202031A683B
:1010D00043F6004442F480421A601A68C4F20104E4
:1010E00002F480420292029A29F003024FF6084C61
:1010F0002244CFF6FF7C52F80C3005F00C070F2687
:10110000BE40B343019E06FA07F73B4342F80C305A
:10111000A2684B6842EA0A0743F60C4CDE0258BF4D
:1011200022EA0A07A760C4F2010CDCF800209E0244
:1011300042EA0A0758BF22EA0A07CCF80070626840
:101140009E0342EA0A0758BF22EA0A07676022683C
:10115000DB0342EA0A0758BF22EA0A07276053E77F
:1011600003B0BDE8F08F000040F26820C2F200003A
:1011700000687047002804BF01207047F0B581B0B7
:10118000044690F83D0028B9002084F83C00204631
:1011900000F0A2F8242084F83D002068016821F0C6
:1011A00001010160016841F400410160016821F41E
:1011B0000041016000F092FA636848F2A16CC0F24D
:1011C000010C40F60011C0F23D0163453CBF48F2FE
:1011D0008041C0F21E01884202D2012001B0F0BD60
:1011E0004DF68361C4F21B31A0FB01122168970CFC
:1011F000D1F804E04FF496762EF03F0545EA92458B
:101200004D60774348F638160D6AC0F24106A7FBD9
:10121000067625F03F07634538BF960C721C3A43AB
:101220000A62CA6948F2A0664CF6FF77C0F201066E
:10123000B34222EA07020BD801385B00B0FBF3F09F
:1012400001306FF31F30042898BF04201BE000BF5B
:10125000A768013857B119277B43B0FBF3F0013081
:101260006FF31F3070B100F5804007E003EB4303DC
:10127000B0FBF3F001306FF31F3018B100F5004000
:1012800001E000BF01201043C8610868D4E90723CA
:1012900020F0C000104318430860886848F2FF320D
:1012A00004F10C0790438CCF18431043A669886063
:1012B000C86820F0FF0038433043C860086840F039
:1012C0000100086000202021206484F83D10206384
:1012D00084F83E0001B0F0BD2DE9F04786B045F638
:1012E00000460068C4F200060025B0420595CDE92D
:1012F00003550295019503D006B0BDE8F08700BF05
:1013000043F630070095C4F20207386801AC40F09C
:101310000400386038684FF0120800F004000090B4
:101320000098009538684FF0030940F001003860DC
:1013300038684FF0040A00F00100009000984FF464
:101340000070019006F5D6302146CDE90285CDF832
:101350001090CDF814A0FFF737FE4FF48070CDE960
:10136000010803A880E8200606F5D2302146FFF7E1
:101370002BFE0095386940F400003861386900F4AC
:1013800000000090009806B0BDE8F08740F2000031
:1013900040F26821C2F20000C2F2000100780A683F
:1013A000104408607047000080B543F60040C4F266
:1013B0000200016841F400710160016841F480613C
:1013C0000160016841F480710160032000F086F83B
:1013D0000F2000F005F800F027F8002080BD000085
:1013E00070B540F20006C2F2000640F20801327801
:1013F000C2F200014FF47A730968B3FBF2F20446BB
:10140000B1FBF2F1084600F0D1FB0F2C4FF00105C3
:1014100008D838B94FF0FF3021460022002500F0EF
:1014200031F87460284670BD82B0002043F6400158
:101430000190C4F202014A6842F480424A604A685C
:1014400002F480420192019A0090086840F08050B6
:101450000860086800F080500090009802B0704763
:10146000002848BF704700F01F01012202FA01F175
:101470001C2202EAD0004EF20012CEF2000281508D
:101480007047000010B54EF60C5CCEF2000CDCF894
:101490000030C3F3022E8EF00704042C28BF04246E
:1014A000BEF103034FF0FF3E0EFA04F438BF0023F1
:1014B000A14399400EFA03F39A43114300F00F023F
:1014C00000F160430901043A03F5644362440028D3
:1014D00048BF02F10C03197010BD00004EF60C510C
:1014E000CEF200010A684FF6FF031A4060F30A22A9
:1014F00042F0806040F0FD700860704770B582B0C7
:101500000020019043F64000C4F20200016840262A
:1015100041F0805101600068C4F20E2600F0805056
:101520000190019847F204050120C4F200053060E3
:10153000FFF71AFE044600BF2868C00306D4FFF771
:1015400013FE001BB0F57A7FF6D90EE00120706023
:10155000FFF70AFE044600BF2868800308D4FFF79F
:1015600003FE001BB0F57A7FF6D9032002B070BDF0
:10157000002002B070BD0000002804BF01207047A9
:101580002DE9F04143F60808C4F202080446D8F8F1
:10159000F8030D4600F00F00884207D288F8F85390
:1015A000D8F8F80300F00F00A84277D1206881072F
:1015B00017D5410705D5D8F8001041F4E051C8F817
:1015C0000010010705D5D8F8001041F46041C8F8B3
:1015D0000010D8F80010A26821F0F0011143C8F8FB
:1015E0000010C00740D1D8F8F80300F00F00A8425F
:1015F00007D988F8F853D8F8F80300F00F00A8428C
:101600004CD12068410707D5D8F80010E26821F4D2
:10161000E0511143C8F80010000708D5D8F80000C1
:10162000216920F4604040EAC100C8F8000000F0E1
:101630007DF8D8F8001044F63032C1F30311C0F63B
:101640000002515C40F2080220FA01F140F204006D
:10165000C2F200000068C2F200021160FFF7C0FE93
:101660000020BDE8F08100BF6068811E022907D21A
:1016700058F8081C89015CBF0120BDE8F08111E029
:10168000012807D158F8081C89035CBF0120BDE878
:10169000F08107E058F8081C890703D40120BDE851
:1016A000F08100BFD8F8001021F003010843C8F80A
:1016B0000000FFF759FD064641F28837D8F80000D0
:1016C000616800F00C00B0EB810F8CD0FFF74CFD8F
:1016D000801BB842F2D90320BDE8F08140F2080037
:1016E00043F60801C2F20000C4F202010068096872
:1016F00044F64032C1F38221C0F60002515CC8407A
:101700007047000040F2080043F60801C2F20000F2
:10171000C4F202010068096844F64032C1F3423164
:10172000C0F60002515CC8407047000010B543F697
:101730000404C4F202046068C0F3810142F2004074
:10174000C0F2F400DFE801F04202081841F2002084
:10175000C0F27A0010BD00BF216801F03F0221688D
:1017600023684902C3F3881116D4A1FB00010023AA
:10177000FEF7AEFD17E000BF216801F03F022168CF
:1017800023684902C3F3881114D4A1FB000100238C
:10179000FEF79EFD15E000BF41F20020C0F27A0086
:1017A0004843B0FBF2F021680222C1F3014102EB91
:1017B000410109E041F20020C0F27A004843B0FB49
:1017C000F2F02168C1F30271B0FBF1F010BD00002E
:1017D000002804BF012070472DE9F04182B0044683
:1017E000007843F60006C007C4F202060CD0B068C9
:1017F00000F00C00042840F089803068800303D595
:101800006068002800F050812078800723D5B068F8
:1018100010F00C0F11D0B06800F00C00082802D1B5
:101820007068400209D5B06800F00C000C2840F048
:101830009F807068400200F19B803068800703D56C
:10184000E068012840F030813068216920F0F8001C
:1018500040EAC10030602078000713D420784007A8
:101860002AD4A569002D00F01A81B06800F00C00A0
:10187000082840F0AB80012D40F0E880012002B044
:10188000BDE8F0816069002840F20000C4F2472002
:1018900000F088800121C0F8801EFFF765FC054636
:1018A000706F8007DAD4FFF75FFC401B0228F7D97E
:1018B000032002B0BDE8F081306C5FEAC0080AD4B2
:1018C00000200190306C40F080503064306C00F0AB
:1018D00080500190019847F20007C4F20007386871
:1018E000C00537D4386840F480703860FFF73CFC9E
:1018F000054600BF3868C0052CD4FFF735FC401BF7
:101900000228F7D9032002B0BDE8F081B06800F0EA
:101910000C00082803D1706840023FF56EAFB06834
:1019200000F00C000C2803D1706840023FF565AF51
:1019300061683068B1F5803F07D0B1F5A02F40F065
:10194000CB8040F480203060306840F480303060DC
:10195000CBE000BFA168306F012905D0052957D120
:1019600040F004003067306F40F00100306759E00C
:10197000E068002800F09C800020C4F2472001218C
:101980000160FFF7F1FB0546306880073FF55CAF6B
:10199000FFF7EAFB401B02284FF00300F4D902B026
:1019A000BDE8F0810021C0F8801EFFF7DDFB054691
:1019B000706F80077FF552AFFFF7D6FB401B022800
:1019C000F6D9032002B0BDE8F08100BF0027C4F2C1
:1019D000472700203866FFF7C7FB022D05460BD1CD
:1019E0003068800140F19280FFF7BEFB401B022867
:1019F0004FF00300F4D9D2E7306880014FD5FFF7EC
:101A0000B3FB401B02284FF00300F5D9C7E700BF26
:101A100020F001003067306F002920F004003067AB
:101A200000F09880FFF7A0FB054641F2883700BF21
:101A3000306F800700F1A080FFF796FB401BB84293
:101A4000F6D9032002B0BDE8F08100BF7068E169FB
:101A500000F480028A4227D1216A00F03F028A42C4
:101A600022D147F6C071626A0140B1EB821F1BD1DF
:101A7000A16A4FF6FF73C903994300F44032A1F500
:101A800080318A4210D1E16A00F07062B2EB016FDE
:101A90000AD1216B00F0E040B0EB017F04D10020BF
:101AA00002B0BDE8F08100BF012002B0BDE8F081C6
:101AB0000020C4F2472000210160FFF755FB0546D6
:101AC000306880077FF5C7AEFFF74EFB401B02284A
:101AD0004FF00300F4D962E720F4803030603068C2
:101AE000002920F48020306050D0FFF73DFB0546F0
:101AF000306880033FF588AEFFF736FB401B642853
:101B0000F6D9032002B0BDE8F08100BF04F11C0546
:101B10002FCD246B084340EA8210D9034FF6FF72A1
:101B20009143A1F5803140EA0560084340EA047022
:101B3000706001203866FFF717FB044630688001AB
:101B4000ADD4FFF711FB001B02284FF00300F5D9BD
:101B500025E700BFFFF708FB054641F2883700BFC5
:101B6000306F800708D5FFF7FFFA401BB8424FF0EF
:101B70000300F5D913E700BFB8F1000F3FF571AED0
:101B8000306C20F0805030646BE600BFFFF7ECFA59
:101B9000054600BF306880037FF536AEFFF7E4FAF4
:101BA000401B64284FF00300F4D9F8E6411E0020E2
:101BB000B0EB116F1CBF012070474EF21002CEF245
:101BC000000251604EF62351CEF20001F0230B705B
:101BD0000721906011607047704700007047000057
:101BE000B0B582B001680A68CC684B6902F02F0575
:101BF000202D04F0200505D125B102B0BDE8B0408C
:101C000000F0D2BB5FEA027C1EBF03F0010E04F4B9
:101C1000907313EB0E0341D1036BD50618D5012B3E
:101C200016D114F0100313D0002201920A68019219
:101C30004A680192019A496949064BD4818DC28D47
:101C4000C38D002B18BF914240F0F48102B0B0BDAB
:101C500013062DD514F080032AD090F84120212AB4
:101C6000F4D18268B2F5805F03D10269002A00F0E6
:101C70006782026A531C036212784A60C28C013A7E
:101C80001304C284E2D1C86820F08000C860C8682C
:101C900040F04000C86002B0B0BD00BFD30718BF1D
:101CA00014F4807340F0D080530700F1D380D8E063
:101CB0005206CBD514F04002C8D0CA6822F04002C8
:101CC000CA60202180F8411002B0BDE8B04000F0A9
:101CD000E9BA00BFC16B0A68526893B2002BB5D055
:101CE000858DAB42B2D2C285C969B1F5807F00F063
:101CF000A080016851E8031F026821F4807142E866
:101D00000313DBB1016851E8031F026821F48071FD
:101D100042E8031393B1016851E8031F026821F4FC
:101D2000807142E803134BB1016851E8031F026858
:101D300021F4807142E80313002BDAD1016851E8E5
:101D4000051F026821F0010142E80513BBB30168D9
:101D500051E8051F026821F0010142E8051373B341
:101D6000016851E8051F026821F0010142E80513EE
:101D70002BB3016851E8051F026821F0010142E818
:101D80000513002BDAD11AE0016851E8051F02683B
:101D900021F0400142E80513DBB1016851E8051F5D
:101DA000026821F0400142E8051393B1016851E84F
:101DB000051F026821F0400142E805134BB101689C
:101DC00051E8051F026821F0400142E80513002B8D
:101DD000DAD1202180F8421000210163016851E826
:101DE000031F026821F0100142E80313DBB1016810
:101DF00051E8031F026821F0100142E8031393B178
:101E0000016851E8031F026821F0100142E8031342
:101E10004BB1016851E8031F026821F0100142E84C
:101E20000313002BDAD1C16B04460846FFF75EF8B6
:101E3000204602214163818DC28D891A89B202B088
:101E4000BDE8B040FFF7C8BE436C43F001034364F4
:101E5000530706D5BEF1000F03D0436C43F00203D5
:101E60004364930706D5BEF1000F03D0436C43F0E3
:101E700004034364BCF1000F06D55EEA050303D0FA
:101E8000436C43F008034364436C002B3FF4DEAE25
:101E9000920605D525B1044600F086FA2168204651
:101EA0004969426C01F0400102F00802891800F013
:101EB000B98000BF016851E8031F026821F49071E6
:101EC00042E80313BBB3016851E8031F026821F421
:101ED000907142E8031373B3016851E8031F02686D
:101EE00021F4907142E803132BB3016851E8031FFA
:101EF000026821F4907142E80313002BDAD11AE052
:101F0000016851E8051F026821F0010142E805134C
:101F1000DBB1016851E8051F026821F0010142E8C8
:101F2000051393B1016851E8051F026821F0010112
:101F300042E805134BB1016851E8051F026821F022
:101F4000010142E80513002BDAD1016B012924D1EC
:101F5000016851E8031F026821F0100142E80313F1
:101F6000DBB1016851E8031F026821F0100142E86B
:101F7000031393B1016851E8031F026821F01001B7
:101F800042E803134BB1016851E8031F026821F0D6
:101F9000100142E80313002BDAD1202180F842100F
:101FA0000021016301684969490640F1C380016865
:101FB00051E8051F026821F0400142E80513DBB13A
:101FC000016851E8051F026821F0400142E805134D
:101FD00093B1016851E8051F026821F0400142E811
:101FE00005134BB1016851E8051F026821F040015B
:101FF00042E80513002BDAD1C16B002900F09A806A
:1020000042F29D32C0F60002044608460A65FEF719
:10201000B5FF00283FF41AAEE06B016D02B0BDE8D9
:10202000B04008470446FFF7D9FD0020606402B0C5
:10203000B0BD00BF891A00BF026852E8032F0368D1
:1020400022F4907243E80325BDB3026852E8032FDF
:10205000036822F4907243E8032575B3026852E8DE
:10206000032F036822F4907243E803252DB302681E
:1020700052E8032F036822F4907243E80325002DF1
:10208000DAD11AE0026852E8052F036822F0010253
:1020900043E80525DDB1026852E8052F036822F008
:1020A000010243E8052595B1026852E8052F03684F
:1020B00022F0010243E805254DB1026852E8052FE0
:1020C000036822F0010243E80525002DDAD1202221
:1020D00080F8422000220263026852E8032F03685E
:1020E00022F0100243E80325DDB1026852E8032F15
:1020F000036822F0100243E8032595B1026852E814
:10210000032F036822F0100243E803254DB1026853
:1021100052E8032F036822F0100243E80325002D44
:10212000DAD1022289B2426302B0BDE8B040FFF7C3
:1021300053BD00BF02B0BDE8B040FFF74FBD00BFC8
:10214000026A32F8023B6FF35F234B60026295E54F
:10215000002804BF0120704710B5044690F84100E4
:1021600028B9002084F84000204600F021F82420FF
:1021700084F841002068C16821F40051C160204604
:1021800000F092F92068016921F4904101614169F0
:1021900021F02A014161C16841F40051C160002071
:1021A0002021606484F8411084F84210606310BDFF
:1021B00080B586B044F600410068C4F200010022F8
:1021C00088420592CDE903220292019202D006B024
:1021D00080BD00BF43F630000092C4F202000369E4
:1021E00043F400230361036903F400230093009B7D
:1021F0000092036843F0010303600068022300F0CB
:1022000001000090009803200190049008200590A0
:1022100001F5DA3001A9CDE90232FEF7D5FE34200E
:1022200000210022FFF72EF93420FFF719F906B03C
:1022300080BD000090F84230202B07D100294FF0DC
:10224000010318BF002A05D118467047022318461B
:10225000704700BF00230363816222218285C2850B
:10226000436480F842100169006819B1C16841F403
:102270008071C160416941F001014161C16841F073
:102280002001C1601846704740F2EC00C2F2000025
:1022900000F1080140F22020C2F200000822FFF7FE
:1022A000C9BF000070470000FEE70000FEE7000025
:1022B000FEE700007047000070470000FFF766B8B7
:1022C00010B594B007AC20463421FEF779F8002011
:1022D00043F640010690CDE90400CDE902000190EB
:1022E000C4F202010A6842F080520A60096801F0F3
:1022F000805101910199019047F20000C4F2000061
:10230000016841F44041016000684FF4800100F42D
:10231000404001900198012007904FF480300E91C9
:102320000421089002200F91B4210D90CDE91010E6
:10233000CDE912002046FFF74BFA18B172B600BF84
:10234000FEE700BFFFF7DAF810B172B6FEE700BF94
:102350000F20029002200390002004904FF4A05020
:1023600005904FF48050069002A80521FFF704F96C
:1023700010B172B6FEE700BF14B010BD4EF6885023
:10238000CEF20000016841F4700101607047000066
:1023900040F22020C2F20000FFF722BC806B002137
:1023A000C185C184FFF71ABC81B090F84210222980
:1023B00021D183680246B3F5805F09D152F8281F06
:1023C00052F8183C002B63D003685B680AE000BF3A
:1023D00052F8281F13B90369002BF5D003685B6816
:1023E00003F07F030B70116801311160C18D013959
:1023F0000A04C18502D001B0704700BF0168CA68F5
:1024000022F02002CA60CA6822F48072CA604A6957
:1024100022F001024A61202180F84210002141632C
:10242000026B012A3CD10163016851E8031F026875
:1024300021F0100142E80313DBB1016851E8031FEA
:10244000026821F0100142E8031393B1016851E8DA
:10245000031F026821F0100142E803134BB1016829
:1024600051E8031F026821F0100142E80313002B1A
:10247000DAD101680A68D20606D5002200920A68FD
:102480000092496800910099818D01B0FFF7A4BBCB
:10249000026852686FF35F2221F8022B8162A5E780
:1024A00001B0FFF7F1BE0000B0B50446006804F1CA
:1024B00008030ECB0569194325F440552A430261F0
:1024C0006269E3691143C268194349F20C639A4394
:1024D0001143C1604169A26921F4407141F2004396
:1024E000114340F48062C4F201039A42416103D176
:1024F000FFF708F902E000BFFFF7F0F8E1694FF6D7
:102500009C7563681922C0F6FF75B1F5004FA0FBFA
:1025100002011FD15A00DB0FFDF7DAFE48F21F510E
:10252000C5F2EB11A0FB01235A0905F1805302FB10
:102530000300322303EBC000A0FB01014FF4F8704D
:1025400000EA111000EB0210C1F3421108442168A7
:102550008860B0BD9A009B0FFDF7BAFE48F21F518C
:10256000C5F2EB11A0FB01235A0902FB050032233F
:1025700003EB0010A0FB0101F02000EA511000EB7A
:102580000210C1F34311084421688860B0BD000007
:10259000FEE70000000000002DE9F04F81B040F29E
:1025A0007008C2F2000898F8031098F808008842F2
:1025B00000F0A08198F807105A2940F09B8198F804
:1025C0000610012940F09681002800F01B810228A6
:1025D0006AD0012840F08A8198F8050001F08DFE4C
:1025E0009FEDC90B57EC109B4A463B4601F0D4FEC9
:1025F00001F0E6FB40F2EC04C2F2000444F8180FCC
:10260000A0602D202546A8F80E0045F8180F0026DA
:102610000420C4E9096040F25010C2F2000000F149
:10262000280B08F15C0A5846294622465346E661C3
:10263000FDF76EFF0520FEF7B3FC4D20A8F80E0055
:1026400028600420C4E909605846294622465346BA
:10265000A6602660E661FDF75BFF0520FEF7A0FCA3
:1026600098F8050001F049FE4A463B4601F094FE09
:1026700001F0A6FBA06020606D20A8F80E00286085
:102680000420C4E909605846294622465346E661BB
:10269000FDF73EFF0520FEF783FC98F8050001F0EA
:1026A0002CFE9FED970B66E098F8050001F025FEE3
:1026B0009FED930B57EC109B4A463B4601F06CFE96
:1026C00001F07EFB40F2EC04C2F2000444F8180F63
:1026D000A0602D202546A8F80E0045F8180F00260A
:1026E0000420C4E9096040F25010C2F2000000F179
:1026F000280B08F15C0A5846294622465346E661F3
:10270000FDF706FF0520FEF74BFC4D20A8F80E0054
:1027100028600420C4E909605846294622465346E9
:10272000A6602660E661FDF7F3FE0520FEF738FCA3
:1027300098F8050001F0E1FD4A463B4601F02CFE09
:1027400001F03EFBA06020606D20A8F80E0028601C
:102750000420C4E909605846294622465346E661EA
:10276000FDF7D6FE0520FEF71BFC98F8050001F0EA
:10277000C4FD9FED650B53EC109B4A46009301F09E
:102780000BFE01F01DFBA06020608D20A8F80E005C
:10279000286004275846294622465346E661C4E984
:1027A0000967FDF7B5FE0520FEF7FAFBAD20A8F896
:1027B0000E0028605846294622465346A6602660E9
:1027C000E661C4E909670427FDF7A2FE0520FEF7CC
:1027D000E7FB98F8050001F090FD009B4A4601F0E8
:1027E000DBFD01F0EDFAA0602060CD20A8F80E001E
:1027F0002860E661C4E909675846294622465346DF
:102800006FE000BF40F2EC04C2F200042D2044F857
:10281000300FA8F80E0040F25010C2F2000000F194
:10282000280608F15C0500274FF0040930462146D0
:1028300000222B4644F8107C44F8187C6760C4E9F9
:102840000379FDF765FE0520FEF7AAFB4D20A8F8E9
:102850000E00C4E900073046214600222B46C4E999
:102860000379FDF755FE0520FEF79AFB6D20A8F8C9
:102870000E00C4E900073046214600222B46C4E979
:102880000379FDF745FE0520FEF78AFB8D20A8F8A9
:102890000E00C4E900073046214600222B46C4E959
:1028A0000379FDF735FE0520FEF77AFBAD20A8F889
:1028B0000E00C4E900073046214600222B46C4E939
:1028C0000379FDF725FE0520FEF76AFBCD20A8F869
:1028D0000E00C4E900073046214600222B46C4E919
:1028E0000379FDF715FE0520FEF75AFB98F808005E
:1028F00088F8030001B0BDE8F08F00BF00BF00BF43
:10290000000000000000E0BF000000000000E03F09
:102910008AB044F60044C4F20004FEF745FDFFF718
:10292000CFFC002543F630000095C4F20200016898
:102930000C2241F080010160016801F080010091EA
:1029400000990095016841F001010160016801F002
:102950000101009100990095016841F002010160B8
:10296000016801F00201009100990095016841F0B1
:102970000401016000684FF4E13100F004000090B0
:10298000009840F22020C2F20000C0E90041C0E9F6
:102990000255C0E90452C0E90655FFF7D9FB18B14A
:1029A00072B600BFFEE700BF40F2CC1004F58051C4
:1029B000C2F2000048F2A0624FF48043C0F201026C
:1029C00080E82600C0E90353C0E90555C0E9075572
:1029D000FEF7D0FB10B172B6FEE700BF40F2501B0D
:1029E000C2F2000B04F5C051584640F8281F0C25D0
:1029F000002600F10C014FF420274FF40019C0E924
:102A0000015681E8C00286618683FEF70DF818B191
:102A100072B600BFFEE700BF0E200BF1280A4FF090
:102A20000108099069465046CDF82080CDE900663E
:102A3000CDE90266CDE90466CDE90668FDF7BAFD89
:102A400004F5E051584640F8501F00F10C01C0E970
:102A5000015681E8C00286618683FDF7E5FF18B163
:102A600072B600BFFEE700BF0E20CDE904804FF034
:102A7000000909900BF150006946CDF82080CDE99E
:102A80000099CDE90299CDE90698FDF793FD40F252
:102A9000EC05C2F2000540F2202005F10801C2F267
:102AA00000000822FFF7C6FB5046FEF7E3F964205A
:102AB000FEF776FA50460221FDF712FD4FF4FA6058
:102AC000FEF76EFA40F20C00C2F2000000682E46DB
:102AD00040F2700446F8180FC2F200044FF0270BC2
:102AE000374647F818BF042004F15C08C6E909908E
:102AF0005046394632464346A4F80AB0C6F81C9000
:102B0000FDF706FDC820FEF74BFA40F20C00C2F2BA
:102B100000000068394630600420C6E9099050463C
:102B200032464346A4F80AB0C7F800B0C6F81C9075
:102B3000FDF7EEFCC820FEF733FA40F20C00C2F2BB
:102B4000000000684FF0470B30600420C6E9099090
:102B50005046394632464346A4F80AB0C7F800B09A
:102B6000C6F81C90FDF7D4FCC820FEF719FA40F215
:102B70000C00C2F200000068394630600420C6E94B
:102B80000990504632464346A4F80AB0C7F800B050
:102B9000C6F81C90FDF7BCFCC820FEF701FA40F215
:102BA0000C00C2F2000000684FF0670B3060042098
:102BB000C6E909905046394632464346A4F80AB061
:102BC000C7F800B0C6F81C90FDF7A2FCC820FEF7BD
:102BD000E7F940F20C00C2F20000006839463060AC
:102BE0000420C6E90990504632464346A4F80AB08C
:102BF000C7F800B0C6F81C90FDF78AFCC820FEF7A5
:102C0000CFF940F20C00C2F2000000684FF0870BD1
:102C100030600420C6E909905046394632464346A2
:102C2000A4F80AB0C7F800B0C6F81C90FDF770FC15
:102C3000C820FEF7B5F940F20C00C2F200000068AF
:102C4000394630600420C6E9099050463246434672
:102C5000A4F80AB0C7F800B0C6F81C90FDF758FCFD
:102C6000C820FEF79DF940F20C00C2F20000006897
:102C70004FF0A70B30600420C6E909905046394652
:102C800032464346A4F80AB0C7F800B0C6F81C9014
:102C9000FDF73EFCC820FEF783F940F20C00C2F2BB
:102CA00000000068394630600420C6E909905046AB
:102CB00032464346A4F80AB0C7F800B0C6F81C90E4
:102CC000FDF726FCC820FEF76BF940F20C00C2F2BB
:102CD000000000684FF0C70B30600420C6E909907F
:102CE0005046394632464346A4F80AB0C7F800B009
:102CF000C6F81C90FDF70CFCC820FEF751F940F215
:102D00000C00C2F200000068394630600420C6E9B9
:102D10000990504632464346A4F80AB0C7F800B0BE
:102D2000C6F81C90FDF7F4FBC820FEF739F940F215
:102D30000C00C2F2000000684FF0E70B3060042086
:102D4000C6E909905046394632464346A4F80AB0CF
:102D5000C7F800B0C6F81C90FDF7DAFBC820FEF7F4
:102D60001FF940F20C00C2F20000006839463060E2
:102D70000420C6E90990504632464346A4F80AB0FA
:102D8000C7F800B0C6F81C90FDF7C2FBC820FEF7DC
:102D900007F940F20C00C2F20000006840F2071B85
:102DA00030600420C6E90990504639463246434611
:102DB000A4F80AB0C7F800B0C6F81C90FDF7A8FB4D
:102DC000C820FEF7EDF840F20C00C2F200000068E7
:102DD000394630600420C6E90990504632464346E1
:102DE000A4F80AB0C7F800B0C6F81C90FDF790FB35
:102DF000C820FEF7D5F801E0FFF7CEFB287AAA2815
:102E0000FAD1E87BFF28F7D1687AA97B2071D5F841
:102E10000A002170C4F80500EEE703B401984100F0
:102E2000009850EAC12018BF04204A0D18BF40F096
:102E3000010040F2FF72B2EB515F08BF40F00200A8
:102E4000012808BF052002B0704700000000000004
:102E500030B540F2FF742DED048BF0EE608A18EE71
:102E6000901A85B0B0EE408A9FED2B9B05468DED04
:102E7000008B34EA115147D053EC192B51EC180B4D
:102E800001F0E8F940D02A4651EC180B01F0C2FDE0
:102E900041EC180B18EE900A8DED008B34EA1050BF
:102EA0001CD053EC192B51EC180B01F0D3F92BD19A
:102EB0000220FDF7B4FA00F023FF10EE901A18EE8E
:102EC000900A8DED020B8DED008B61F31E000390D7
:102ED0009DED020B05B0BDEC048B30BD0220FDF76B
:102EE0009EFA00F0FDFE10EE901A18EE900A8DED9D
:102EF000020B8DED008B61F31E0003909DED020B24
:102F000005B0BDEC048B30BD05B0B0EE480AF0EE64
:102F1000680ABDEC048B30BD00000000000000001A
:102F20002DE9F04D2DED040B2DED0E8B94B0DDE968
:102F30002350259CDDF888A025F0004624F00048A9
:102F4000BAF1000F14BF0121002101EB4502FC4939
:102F500053184A1093422AD3002814BF0123002398
:102F600003EB44030B44F7498B4220D358EA00019A
:102F70009FEDF5AB76D0DFF8D8B35D4503D1BAF15C
:102F8000000F05D188E0BAF1000F08BF002100D082
:102F9000012101EB450111F5001F08D8002814BFDD
:102FA0000121002101EB440111F5001F0BD99DED1A
:102FB000241B9DED220B14B0BDEC0E8B04B0BDE8BC
:102FC000F04D00F071BE0027002DBCBFE1498845DF
:102FD00021DAE1498845A8BF02271CDAC3451ADC7B
:102FE000DE4901EB2851142908DDC1F1340220FA31
:102FF00002F101FA02F282420DD108E058B9C1F1A2
:10300000140228FA02F101FA02F2424503D101F05A
:103010000101C1F1020756EA0A0124D1002C22DA8B
:10302000002D18BF022F01D0012F0AD00220FDF77A
:10303000F6F914B0BDEC0E8B04B0BDE8F04D00F015
:103040001BBE0220FDF7EBF900F016FE51EC100B51
:1030500000F0A9FE41EC100B14B0BDEC0E8B04B0D7
:10306000BDE8F08D18E09FEDBE9B9FEDBF8B002863
:1030700071D1B848804522D105F1804010F580100B
:1030800008BFBAF1000F07D0B3450ADC002CA8BF77
:103090009DED240BE0DA0DE0B0EE4A0AF0EE6A0A8C
:1030A000DAE7002C06DA9DED240B51EC100B00F052
:1030B0007AFE6FE0AE48784490ED000BCCE7D8453F
:1030C0004DD1002C48DA2EB186423AD1BAF1000F28
:1030D00042D126E0BAF1000F13D00220FDF79FF98C
:1030E00000F0FEFD8DED020B9DED220B8DED000B32
:1030F00010EE900A039961F31E0003909DED020B00
:10310000AAE78DED029B9DED220B19EE901A10EEB1
:10311000900A8DED000B61F31E0003909DED020BF4
:103120009AE78DED028B9DED220B18EE901A10EEB2
:10313000900A8DED000B61F31E0003909DED020BD4
:103140008AE709DA9DED220B51EC1A0B53EC102B98
:1031500000F024FF1EE020E09DED220B7CE786427C
:103160001BDAB4F1804F0DD0A4F10050B0F1FF5044
:1031700013D1002D11DB9DED220B51EC100B00F053
:10318000DBFD07E09DED220B53EC102B51EC100BF7
:1031900000F0CABC41EC100B5EE79DED220B51EC38
:1031A000100B00F0BDFDBAF1000FCDE90A0142D1CC
:1031B0009FED710B46B3A6F1E040B0F17F600CD0FB
:1031C0005E4538D1002D00DAA7B3022F0CBF0120D5
:1031D0004FF0FF3001F07AF8DCE7002D01DD002C24
:1031E0000DDA002D01DD002C1FDB002D16DA002C7E
:1031F00014DB012F08BF9FED620B3FF42DAFB0EE43
:10320000490AF0EE690A27E7022F18BF002D0CD0FB
:10321000012F0AD1002DFFF61FAF06E0002DB8BF29
:10322000002C08DA012F3FF417AFB0EE480AF0EE99
:10323000680A11E71BE0012000EBE57050EA070186
:1032400015D0791EB0EE4A8AF0EE6A8A084308BFAC
:103250009FED4D8B4E480025804570DD4D494E4811
:10326000884514DDB0420DDB002C19DB2FE0012076
:10327000FDF7D5F814B0BDEC0E8B04B0BDE8F04DF1
:1032800000F01EBDB34502DC002C09DC1FE08642C5
:1032900002DA002C1BDA03E05E452BDD002C16DD84
:1032A0000220FDF7BCF800F01BFD8DED020B53EC86
:1032B000192B51EC180B01F06FF8CDE900010399BF
:1032C000019861F31E0003909DED020BC4E60220FD
:1032D000FDF7A5F800F014FD10EE901A18EE900A14
:1032E0008DED020B8DED008B61F31E0003909DEDC3
:1032F000020BB1E69DED0A0B53EC1A2B51EC100BAF
:1033000001F056FA9FED260BCDE90A0153EC102B84
:103310009DED0A0B51EC100B01F03EF89FED221BC6
:1033200053EC112B01F06CF99DED0A1B53EC112BA2
:1033300001F032F89FED1E1B53EC112B3CE08CE0AA
:10334000FFFF1F00FFFF0F00000000000000F03F24
:103350000000F03F0000F07F0000404301FCFFFF51
:10336000000000000000F07F0000000000000000EE
:103370006E1A000000000000000000000000008045
:10338000000000000000F0FF000000000000F0BF9F
:103390000000E0410000F043FFFFEF3F00000000AD
:1033A000000000000000D03F555555555555D53FFC
:1033B000000000000000E03F01F022F99DED0A0B43
:1033C00041EC190B53EC102B51EC100B00F0E4FF07
:1033D00053EC192B00F0E0FF9DED0A0B41EC1B0BA9
:1033E00053EC102B9FEDFE0B51EC100B00F0D4FFB3
:1033F00041EC190B9FEDFC0B51EC1B0B53EC102B0C
:1034000000F0CAFF41EC1B0B9FEDF90B53EC102BA6
:103410009DED0A0B51EC100B00F0BEFF53EC1B2B83
:1034200001F0C6F941EC1B0B51EC190B53EC1B2BB3
:1034300000F0F8FC0490CDE904519DED040B53EC31
:10344000192B51EC100B01F0B3F953EC1B2B01F0CD
:10345000D7F841EC100B00F0A9B90020B6F5801F99
:103460000EDA9FEDE50B53EC102B9DED0A0B51ECA2
:10347000100B00F091FFCDE90A016FF034000E4609
:1034800000EB2650A0F2FF37C6F31300DC4940F0F2
:103490007F6646F040568842D8BF002408DDD949EF
:1034A0008142C8BF012403DC0024A6F580167F1CDE
:1034B000D548784400EBC4080B9698ED000B53EC0C
:1034C000102B9DED0A0B51EC100B01F071F998EDEA
:1034D000000B41EC1B0B53EC102B9DED0A0B51EC38
:1034E000100B00F09FFC41EC100B51EC1A0B53EC4D
:1034F000102B00F053FD41EC1C0B51EC1B0B53EC5B
:103500001C2B00F049FF41EC190BC0488DED0E9BC0
:1035100078440E9590ED000B4FF0005040EA6600A5
:1035200000EB84408DED120B00F50020139098ED18
:10353000000B53EC102B9DED120B51EC100B01F016
:1035400037F99DED0A1B53EC112B01F059F841ECB2
:10355000100B53EC102B9DED0E0B51EC100B00F0EB
:103560001BFF9DED120B41EC1D0B53EC102B9DED41
:103570000E0B51EC100B00F00FFF53EC1B2B01F066
:103580003FF853EC1D2B01F013F953EC1C2B00F00A
:1035900003FF41EC1C0B53EC192B51EC190B00F001
:1035A000FBFE41EC1B0B9A480621B0EE4B0AF0EEF5
:1035B0006B0A784400F0E4FAB0EE401AF0EE601ABC
:1035C000B0EE41DAF0EE61DA53EC1B2B51EC1B0B41
:1035D00000F0E2FE53EC1D2B00F0DEFE9DED0E0B25
:1035E00041EC1B0B53EC192B51EC100B00F01AFCA7
:1035F00053EC1C2B00F0D0FE53EC1B2B00F012FC04
:103600009DED0E0B41EC1B0B53EC102B51EC100BF2
:1036100000F0C2FE41EC1D0B53EC1D2B9FED7EEB29
:1036200051EC1E0B00F0FEFB53EC1B2B00F0FAFBE1
:103630001290CDE912519DED120B53EC1E2B51EC63
:10364000100B01F0B5F853EC1D2B01F0B1F853EC61
:103650001B2B00F0D5FF9DED120B41EC1D0B53EC25
:10366000102B9DED0E0B51EC100B00F095FE41EC74
:103670001B0B53EC192B51EC1D0B00F08DFE9DED37
:10368000120B41EC190B53EC102B51EC1C0B00F0FE
:1036900083FE53EC192B00F0C5FB41EC190B51ECE8
:1036A0001B0B53EC192B00F0BDFB0490CDE904512A
:1036B0009DED040B53EC1B2B51EC100B01F078F833
:1036C00053EC192B00F09CFF9DED040B41EC190B02
:1036D00053EC102B9FED520B51EC100B00F05CFEE5
:1036E00041EC1B0B9FED500B51EC190B53EC102BC5
:1036F00000F052FE9DED040B41EC190B53EC102B26
:103700009FED4B0B51EC100B00F046FE53EC192BC8
:1037100000F088FB41EC100B4748784400EBC400F4
:1037200090ED001B51EC100B53EC112B00F07AFBC9
:1037300041EC190B384600F0C9FDCDE90A0153EC04
:10374000192B51EC1B0B00F06DFB41EC100B3B48AF
:10375000784400EBC40451EC100B94ED001B53ECC7
:10376000112B00F05FFB9DED0A1B53EC112B00F0B9
:1037700059FB0490CDE904519DED0A0B53EC102B3D
:103780009DED040B51EC100B01F012F894ED001BB1
:1037900053EC112B01F00CF853EC1B2B01F008F843
:1037A00053EC192B00F02CFF41EC100B9DED241B6A
:1037B00053EC102B8DED001B00959DED240B51EC6F
:1037C000100B00F0E9FD9DED000B41EC190B53ECE3
:1037D000102B9DED240B51EC100B00F0E9FF2FE0B6
:1037E000000000604715F73FFE822B654715F73F45
:1037F00044DF5DF80BAE543E000000000000404383
:103800008E9803007AB60B00EA150000141600002B
:103810001A15000000000000000000000000084031
:10382000000000E009C7EE3FFD033ADC09C7EE3FA8
:10383000F5015B14E02F3EBEA21300005C130000F4
:103840009DED041B53EC112B00F0A6FD53EC192B3E
:1038500000F0E8FA9DED040B41EC190B53EC102B32
:103860009DED000B51EC100B00F096FDCDE904012D
:103870009DED040B51EC190B53EC102B00F0D2FA18
:10388000CDE902010C46AA498C422FDB611A08439C
:1038900018D19DED040B53EC102B9DED020B51EC58
:1038A000100B00F085FF41EC1B0B9FEDA30B51ECBF
:1038B000190B53EC102B00F0B5FA53EC1B2B00F056
:1038C00069FE2DD20220FCF7AAFD00F009FA10EEE5
:1038D000901A18EE900A8DED020B8DED008B61F3BE
:1038E0001E0003909DED020BFFF7B6BB944A24F037
:1038F0000041914214D39349214408437FF4E7AC3B
:103900009DED040B53EC102B9DED020B51EC100BB5
:1039100000F04EFF53EC192B00F03CFE7FF6D7ACC5
:1039200024F000408849894A002601EB2051824258
:103930002BDA481C4FF4801121FA00F02044844A0D
:10394000C0F30A517A44A1F2FF3192ED000B814A93
:103950008DED0A0BCA4020EA0202C0F3130040F4C6
:103960008010C1F1140120FA01F60B92002CB8BFAF
:1039700076429DED0A0B53EC102B9DED040B51ECA0
:10398000100B00F015FFCDE904019DED040B51EC87
:10399000190B53EC102B00F045FA9FED6F0B0A90BA
:1039A000CDE90A5153EC102B9DED0A0B51EC100B95
:1039B00000F0F2FC41EC1B0B9FED690B53EC102B5C
:1039C0009DED0A0B51EC100B00F0E6FC9DED040B95
:1039D00041EC1C0B53EC102B9DED0A0B51EC100B22
:1039E00000F0E6FE53EC192B00F00AFE9FED5E1B83
:1039F00053EC112B00F0D0FC53EC1C2B00F012FA0E
:103A000041EC190B51EC1B0B53EC192B00F00AFA8B
:103A1000CDE902019DED020B53EC1B2B51EC100B79
:103A200000F0C6FE53EC192B00F0EAFD9DED020BF1
:103A300041EC190B53EC102B51EC100B00F0ACFCCB
:103A4000CDE90A014A489DED0A0B0521784400F0B2
:103A500097F89DED0A1B51EC100B53EC112B00F065
:103A60009BFC9DED021B53EC112B00F0C9FDCDE931
:103A700004019DED020B53EC192B51EC100B00F0DF
:103A80008BFC53EC192B00F0CDF99FED3B0B41EC77
:103A9000190B53EC102B9DED040B51EC100B00F0A7
:103AA00087FE9DED040B41EC1B0B53EC102B9DEDA1
:103AB000020B51EC100B00F06FFC53EC1B2B00F0D1
:103AC0006DFA53EC192B00F073FE9DED021B53ECC5
:103AD000112B00F06DFE53EC1A2B00F091FDCDE997
:103AE000020101EB065001150029C8BF039015DC47
:103AF0009DED020B324651EC100B00F08BFFFFF7EF
:103B00008CF9042808BF00F0FBF832469DED020B4B
:103B100051EC100B00F07EFFCDE902019DED020B90
:103B200051EC180B53EC102B00F036FCFFF732BBB6
:103B30000000904000000000FE822B654715973C76
:103B400000CC904000346F3F01FCFFFF0000E03FDD
:103B5000E0110000FFFF0F0000000000432EE63FD1
:103B6000396CA80C615C20BEEF39FAFE422EE63FAC
:103B7000B010000000000000000000000000004045
:103B800070B504462DED028B4D1E00EBC500B0EE66
:103B9000408AF0EE608A90ED000B35F0060017D0F9
:103BA00053EC182B51EC100B00F0F6FB41EC100B12
:103BB0006D1E04EBC50090ED001B51EC100B53EC97
:103BC000112B00F02FF941EC100B35F00600E7D176
:103BD000022D36D0042D1CD0062D1CBFBDEC028B4F
:103BE00070BD53EC182B51EC100B00F0D5FB94ED8D
:103BF0000A1B53EC112B00F015F953EC182B00F0B5
:103C0000CBFB94ED081B53EC112B00F00BF941ECAE
:103C1000100B53EC182B51EC100B00F0BDFB94ED86
:103C2000061B53EC112B00F0FDF853EC182B00F0A1
:103C3000B3FB94ED040B53EC102B00F0F3F841ECC4
:103C4000100B53EC182B51EC100B00F0A5FB94ED6E
:103C5000021B53EC112B00F0E5F853EC182B00F08D
:103C60009BFB94ED001B53EC112B00F0DBF8BDEC3B
:103C7000028B41EC100B70BD9FED070B10B553ECA0
:103C8000102B9FED070B51EC100B00F087F941EC66
:103C9000100B10BD0000000000000000000000003C
:103CA000000000000000F03F10B553EC112B51EC68
:103CB000100B00F0B7F841EC100B10BD0000000035
:103CC0009FED050B10B553EC102B51EC100B00F0D1
:103CD00065F941EC100B10BD000000000000000071
:103CE0009FED050B10B553EC102B51EC100B00F0B1
:103CF00053FB41EC100B10BD0000000000000070F1
:103D00009FED050B10B553EC102B51EC100B00F090
:103D100043FB41EC100B10BD000000000000001040
:103D200082B0CDE9000121F0004001909DED000B33
:103D300002B051EC100B704700B52DED048B83B031
:103D400041EC190B00F068FC41EC180B18EE100A5E
:103D500018EE901A8DED008B002818BF0120084343
:103D600020F00040C0F17F6000F1E040C00F14D0AF
:103D700019EE101A19EE900A8DED009B002918BF5C
:103D80000121084320F00040C0F17F6000F1E040D5
:103D9000C00F04BF0120FCF742FB51EC180B03B02D
:103DA000BDEC048B00BD81F00041704780F0004005
:103DB000704721F00041704720F00040704700003C
:103DC00021F0004201F00043A2F16052B2F5801FE1
:103DD00028BFD2F17F6C0BD95FEA001C43EAC20214
:103DE00042EB507018BF704728BF20F001007047A9
:103DF000B2F5801FBCBF184670474FEA410C1CF556
:103E0000001F02D2084600F0CEBD70B500F06EFB78
:103E100000000089FFF7F6BF4FF00040A0F58000DA
:103E20007047000010B591EA030F48BF83F00043CC
:103E300000F1C684841A71EB030C05D2121943EB0E
:103E40000C03001B61EB0C014FEA1154A4EB135C53
:103E5000DFF81CE11EEA430F18BF9EEA445F00F042
:103E6000748021EA045123EA0E0343F48013DCF149
:103E7000200E32D322FA0CFE10EB0E0023FA0CFEB9
:103E800041EB0E01CCF1200E03FA0EFE10EB0E00FA
:103E9000CCF1200E51F10001B1F5801F32D201EBBF
:103EA000045112FA0EF2BDE8104058BF7047401C92
:103EB00038BF5FEA420218BF7047002814BF20F0E5
:103EC000010041F100014FEA410313F5001F38BF23
:103ED0007047A1F1C04100F057BB012A43EB030238
:103EE000ACF1200CDCF11F0E32BF4FF0000E23FAB4
:103EF0000CF310EB030041EB0451B4EB115FD0D095
:103F0000A1EB045101F58011490801EB04515FEA6E
:103F100030000ED350F1000038BF12FA0EFE08D167
:103F2000BDE81040C9E7401C38BF5FEA4202CAD171
:103F3000C3E7BDE810404FEA410313F5001F38BF47
:103F40007047A1F1C04100F01FBB9EEA445F08D05A
:103F500011EA5E0FBDE8104004BF01F000410020EF
:103F60007047BDE8104070B500F0C0FA64FBBE3E7B
:103F70000000E0FF02494FF0000000F019BD00BF53
:103F80000000F87F491058BFC1F140415B1058BF95
:103F9000C3F140438B42EFF3008070472DE9C041ED
:103FA00030B4DFF8A8C23CEA111418BF3CEA13147D
:103FB00000F0F0801CEA111481EA030544EAD5748C
:103FC00018BF1CEA131500F0CB80A4EB050404F124
:103FD0007F7404F500344FF0004545EAC12145EAFD
:103FE000C32341EA505143EA52534FEAC0204FEAFB
:103FF000C222994208BF904200F0A0804FEA1365A8
:104000000FF24816765D4FEA134506FB05F7C7F138
:10401000807706FB07F74FEAD737A7FB036876429E
:10402000A7FB06CEC8F5803838BFA8F1010807FB0A
:1040300008E6A6FB028C4FF0000EE6FB03CED8F19B
:1040400000086FEA0C0C5CF1000C6FEA0E0E4EF1EA
:10405000004EA6FB0C584FF00007E6FB0E87A1FBB5
:1040600008C6A0FB07CE16EB0E064FF0000545F183
:104070000005E1FB076515F1E04E7EBFA4F5803435
:104080005FEA46066D4116F1800745F100054FEAEB
:10409000172747EA05674FEA15254FEA0666A6F196
:1040A000DE46B6F1805F20D9384605EBC47124F0B6
:1040B000010C01EB0C11BCF1FE6F02D8F0BCBDE8A5
:1040C000008124425CBF01F5801E9EEAC47F02D4B9
:1040D000F0BCBDE80081244200F13980A1F1C0416B
:1040E000F0BCBDE8004100F04FBA4FEAD02040EAF2
:1040F00041504FEAD1214FEAD22242EA43524FEADD
:10410000D323A7FB028607FB036605FB02661EEAB4
:104110000E0F58BFA6EB0056B6EB00564FEA520EF4
:104120004EEAC37E18EB0E0E56EB530EBCD518EBC1
:1041300002085E417F1C55F10005B5E74FF480157C
:104140004FF000074FF000064FF00008ACE701F118
:10415000C04101F000414FF00000F0BCBDE800811B
:104160000CEA131511EA0C1F00D00CE013EA0C1F27
:1041700000F025804FF0000081EA030101F00041CA
:10418000F0BCBDE80081F0BCBDE8004181EA03015C
:1041900000F0FAB9F0BCBDE8004170B500F0A6F936
:1041A000097EFC3E00F007B84FF0000081EA0301F1
:1041B00001F00041704781EA030100F0E5B9F0BC6D
:1041C000BDE8004122494FF000007047FFFDFBF9B8
:1041D000F7F5F4F2F0EEEDEBE9E8E6E4E3E1E0DE3A
:1041E000DDDBDAD8D7D5D4D3D1D0CFCDCCCBCAC8AC
:1041F000C7C6C5C4C2C1C0BFBEBDBCBBBAB9B8B7D3
:10420000B6B5B4B3B2B1B0AFAEADACABAAA9A8A8C5
:10421000A7A6A5A4A3A3A2A1A09F9F9E9D9C9C9B93
:104220009A9999989797969595949393929191903E
:104230008F8F8E8E8D8C8C8B8B8A898988888787CF
:104240008685858484838382828181800000FF0744
:104250000000F87F51EA030C17D41CF5801F58BFEB
:10426000BCF5801F00F10680994218BF704708BF57
:104270009042704707D711F5801F58BF13F5801F74
:1042800019D499427047894270471CF5801F08D5A0
:10429000BCF5801FF7D58B4218BF704708BF82421C
:1042A00070474FF4001C1CEB410F38BF1CEB430F51
:1042B00001D28B42704770B500F018F99224490082
:1042C0004FF000514FF08053FFF75CBE10F00042FA
:1042D00048BF4042B0FA80F310FA03F10AD0C3F1AC
:1042E0001D0303F5806302EB03524FEA415002EBDA
:1042F000D12170474FF000007047B0FA80F310FAF8
:1043000003F10AD0C3F11D0303F580634FEA0352A2
:104310004FEA415002EBD12170474FF00000704747
:1043200051EA030C17D41CF5801F58BFBCF5801F41
:1043300000F10680994218BF704708BF904270474D
:1043400007D711F5801F58BF13F5801F19D4994264
:104350007047894270471CF5801F08D5BCF5801F47
:10436000F7D58B4218BF704708BF824270474FF4A1
:10437000001C1CEB410F38BF1CEB430F01D28B42DA
:10438000704770B500F0B2F8922449004FF0005128
:104390004FF08053FFF7F6BD70B5DFF848C11CEA57
:1043A000111E1EBF1CEA13159EEA0C0F95EA0C0F96
:1043B00000F06F8081EA03044EEAD47EAE4421EA25
:1043C0004C1123EA4C1341F4801143F48013AEF1F5
:1043D0007F7EA1FB024CA0FB0365361955EB0C0553
:1043E000A1FB034C4CF10003A0FB021C16EB0C06D6
:1043F000654153F10003094218BF46F0010613F46A
:10440000007F0BD14FEA03314FEA053041EA1551E5
:1044100040EA165034036FF003020AE04FEAC3216A
:104420004FEAC52041EA555140EA5650F4026FF078
:10443000020202EB2E4201EB025585EACE710AD050
:104440005FEA440C18BF24F0004450F1000041F131
:10445000000120EAD47040F2FE7C624500D270BDBB
:10446000A84214BF4FF080444FF04044002E08BFD4
:104470000024BEF1806FA8BFA1F1C041BDE870402B
:1044800080F2828001F1C04101F000414FF0000054
:1044900070470CEA13159EEA0C0F18BF95EA0C0F33
:1044A00006D081EA030E4FF000000EF0004170BD0F
:1044B00000F01CF88900013E00F007B800F009B8D0
:1044C0004FEA430C5FEA5C5C08D081EA030100F02C
:1044D0005BB84FEA410C5FEA5C5CF6D102494FF0F1
:1044E000000070470000FF070000F87F0EF1020E89
:1044F0002EF0030E5EF8046B364205D4012A43EB1E
:10450000030515F5001F12D8012841EB010C1CF51D
:10451000001F0CD80ED14FEAD17C0CEB4C0C0CF1E7
:10452000020C15F5001F08BF4CEBD37C04E04FF0E4
:10453000080C01E04FEAD37C0CEB4C0526FA05F69B
:1045400006F00706B6F1040C06D20EEB860CBDE8A9
:1045500070404CF0010C6047DFE80CF0090B0202E0
:104560004FF00041A1F500214FF0000070BD194649
:104570001046012851EB010418BFD4F5001484BF84
:10458000002001F0004170BD0808A0F500114FEABD
:104590003101704753EA010C17D41CF5801F58BF36
:1045A000BCF5801F00F106808B4218BF704708BF22
:1045B0008242704707D713F5801F58BF11F5801F3F
:1045C00019D48B4270479B4270471CF5801F08D559
:1045D000BCF5801FF7D5994218BF704708BF9042BD
:1045E00070474FF4001C1CEB430F38BF1CEB410F0E
:1045F00001D2994270470FB40CBC03BCFFF7C1BE97
:1046000010B591EA030F81F000413FF513AC83F040
:10461000004300F0D5B800002DE9F04101F5801C01
:10462000BCF5001FC0F2A9804FEA115C21EA0C51D1
:1046300041F480110CF1FD0C5FEA5C0C0CF5C07CC0
:1046400001D340004941890241EA905187022EA4DA
:104650008E0EA45D0A0C04FB04F602FB06F6C6F1FE
:104660004046A4FB0662F60D46EA422606FB06F427
:10467000A4FB01235242C3F1404338BF5B1EA6FB9B
:1046800002420024E6FB0324D20B42EA4446A6FB86
:104690000623A1FB02E2A3FB07E4E3FB61426442C1
:1046A000C2F1404E38BFAEF1010EA6FB04234FF01D
:1046B0000002E6FB0E32A2FB03463400E2FB62641A
:1046C000A1FB06E6A4FB07E8E4FB61687642C8F1BB
:1046D000405838BFA8F10108A2FB06E4A3FB08E597
:1046E000E2FB6854A1FB05E6A7FB04E8E1FB648656
:1046F00018F1200556F10006A80940EA8660B109C4
:10470000A8F11B0808F03F08B8F10A0F1CD901EB0B
:104710000C51BDE8F08100BFFCF5EEE8E2DDD8D336
:10472000CFCBC7C3C0BDB9B6B4B1AEACA9A7A5A322
:10473000A19F9D9B9A9896959392908F8D8C8B8933
:104740008887868584838281A0FB006800FB01F254
:1047500008EB4208B8EB872807D5341858EB01045A
:10476000D5D5401C51F10001D1E7341A78EB010492
:10477000CDD4401E71F10001C9E75FEA4C0C5FEA3D
:104780009C5C0DD105D301F000414FF00000BDE865
:10479000F081BDE8F04170B5FFF7A8FE6DDBFFBE0C
:1047A000BDE8F04101494FF0000070470000F87F7C
:1047B00010B591EA030F48BF83F000433FF53AABD1
:1047C000841A71EB030C07D28CF0004C121943EBE6
:1047D0000C03001B61EB0C014FEA1154A4EB135CBA
:1047E000DFF8A4E11EEA430F18BF9EEA445F00F021
:1047F000B48021EA045123EA6E035242C3EB6E03F4
:1048000038BF5B1EDCF1200E25D322FA0CFE10EB24
:104810000E0043FA0CFE41EB0E01CCF1200E03FA20
:104820000EFE10EB0E00CCF1200E51F1000129D448
:1048300001EB045112FA0EF2BDE8104058BF704768
:10484000401C1CBFB2F1004F704700280CBF491C30
:1048500020F00100704712EB020E43EB030218BF79
:104860004FF0010E4EEA4202ACF1200CDCF11E0EBC
:1048700056D943FA0CFE10EB0E00CCF11E0E51F18E
:10488000FF31D5D50EF1010E12FA0EFE404141EB7B
:10489000010101EB445C5FEA5C5C10D901EB04515F
:1048A00010EBDE7038BFBEF1004FBDE8104018BFFE
:1048B000704700280CBF491C20F00100704734D21B
:1048C0004FEAD42C24F4006411F500111BD0B1FA86
:1048D00081F20B3AA41AA41ED2F12003914030FABF
:1048E00003F31943904001EBCC7101EB0451002C10
:1048F000BDE81040A8BF704701F1C04101F0004180
:104900004FF000007047B0FA80F310FA03F102D1C3
:10491000BDE810407047E41A173C4805C90AE2E7B1
:1049200001EB0451BDE81040704749104FEA3000D8
:1049300001EB0451BDE8104002E04FF00001704768
:104940004A0008BF0042F8D0B2F5001F28BF7047E8
:1049500001F000414FF0000070479EEA445F07D02D
:1049600011EA5E0FBDE8104004BF0021002070472F
:10497000BDE8104070B5FFF7B9FD00BF40DFF63E5F
:10498000104683F0004170470000E0FFF1EE100A8E
:104990004FF6FF71C0F2C03120EA010040F04070D4
:1049A000E1EE100A7047FF2141EAD050C005704780
:1049B0000CF00F03092B08BF082000F059800A2BC8
:1049C0000BD0082B18BF704708BF1CF0400F0AD04F
:1049D0004FF000004FF0000170471CF0400F18BF6F
:1049E0004FF0004070471CF0100F08D000F07F42DD
:1049F00020F0704342EAD3014FEA4370704700F061
:104A0000604021F07F4242EA000201F07F4040EA2C
:104A1000727070474FF0FF0C4CF4E06C1CEA1153BD
:104A20001CBF9CEA030C9445C2BFDA4201EB025161
:104A30007047002B0DD0BCF1000F0FD001F00041EA
:104A4000002AA4BF41F0E04141F07F614FF0000037
:104A5000704701F000414FF00000704750EA013309
:104A60004FF09B0C18BF4CF0806C7FF483AA70470A
:104A70001CF4801F11D01CF4E02F03D06FEACC315E
:104A8000490070474FF04050EFF3008222F070422F
:104A900042EA000282F3008870474FF0000070473E
:104AA000000000000000F03F000000000000F83FA0
:104AB00000000000000000000000004003B8E23FDA
:104AC000000000000000000006D0CF43EBFD4C3E8C
:104AD000033333333333E33FFFAB6FDBB66DDB3F81
:104AE0004D268F515555D53F01411DA96074D13FC9
:104AF00065DBC9934A86CD3FEF4E454A287ECA3FC3
:104B00003E5555555555C53F93BDBE166CC166BF44
:104B10002CDE25AF6A56113FF16BD2C541BDBBBE3D
:104B2000D0A4BE726937663E00000000000000009D
:104B3000000000000000000001020304060708094D
:104B40000000000001020304684B00080000002080
:104B50001000000028020008784B00081000002018
:104B6000600800004802000801000000100000007A
:084B70000024F400080000001D
:04000005080001C529
:00000001FF
