:020000040800F2
:1000000098080020910200083921000831210008D9
:1000100035210008890400081924000800000000A8
:100020000000000000000000000000004121000866
:10003000BD040008000000003D2100084521000823
:10004000AB020008AB020008AB020008AB020008DC
:10005000AB020008AB020008AB020008AB020008CC
:10006000AB020008AB020008AB020008AB020008BC
:10007000AB020008AB020008AB020008AB020008AC
:10008000AB020008AB020008AB020008AB0200089C
:100090008D04000899040008AB020008AB020008B8
:1000A000AB020008AB020008AB020008AB0200087C
:1000B000AB020008AB020008AB020008AB0200086C
:1000C000AB020008AB020008AB020008AB0200085C
:1000D000AB020008AB020008AB020008AB0200084C
:1000E000AB020008AB020008AB020008AB0200083C
:1000F000AB020008AB020008AB020008AB0200082C
:10010000AB020008AB020008AB020008AB0200081B
:1001100019220008AB020008AB020008AB0200087D
:10012000AB020008AB020008AB020008AB020008FB
:10013000AB0200080000000000000000AB02000855
:10014000A5040008B1040008AB020008AB020008D7
:10015000AB020008AB020008AB020008AB020008CB
:10016000AB020008AB020008AB020008AB020008BB
:10017000AB020008AB020008AB0200080000000060
:1001800000000000AB0200080000000000000000BA
:10019000AB0200080000000000000000AB020008F5
:1001A000000000000000000000000000AB0200089A
:1001B000AB020008AB020008AB020008AB0200086B
:1001C000AB02000800F002F800F052F814A696E81E
:1001D000000CB244B344DA4501D100F049F8BAE862
:1001E0000F000FA696E83000A5EB040504EB060708
:1001F000AAEB0704A7F101074FEA15154FEA3414DB
:10020000A4F10104AC4201D300F032F813F0010F65
:1002100018BFFB1A43F0010300F001F8DBE71847B1
:10022000B02C0000D02C0000103A24BF78C878C150
:10023000FAD8520724BF30C830C144BF04680C60EC
:1002400070470000704700000023002400250026AE
:10025000103A28BF78C1FBD8520728BF30C148BF29
:100260000B6070471FB502F015FE1FBD10B510BD25
:1002700000F0D4F81146FFF7F5FF02F08DFA00F018
:10028000F2F803B4FFF7F2FF03BC00F0F5F800004A
:100290000948804709480047FEE7FEE7FEE7FEE71A
:1002A000FEE7FEE7FEE7FEE7FEE7FEE70448054956
:1002B000054A064B7047000005220008C5010008EA
:1002C000980200209808002098040020980400203C
:1002D00053EA020C00F069802DE9F04B4FF0000664
:1002E000002B1FBFB3FA83F503FA05F424FA05F6D1
:1002F0005E4012BF1643B2FA82F502FA05F4C5F168
:1003000020051EBF22FA05FC44EA0C04203556EAFB
:10031000044C4FEA144418BF641C4FF000084FF01F
:100320000009904271EB030C39D3002919BFB1FACF
:1003300081F701FA07F6B0FA80F700FA07F6C7F17D
:1003400020071EBF20FA07FC46EA0C062037B6FB42
:10035000F4FCA7EB0507103F07F01F0BCBF12006BD
:100360002CFA06F60CFA0BFB44BFB3460026202FEE
:10037000A4BF5E464FF0000B5BEA060C08BF4FF0CF
:10038000010B19EB0B0948EB0608ABFB027C06FBE3
:1003900002CC0BFB03CCC01B71EB0C01C1E70B467D
:1003A000024641464846BDE8F08B13B5084318BFE6
:1003B0004FF0FF300146AFF30080BDE81C407047AE
:1003C0004FF0000200B5134694469646203922BFEE
:1003D000A0E80C50A0E80C50B1F12001BFF4F7AF39
:1003E000090728BFA0E80C5048BF0CC05DF804EB1B
:1003F000890028BF40F8042B08BF704748BF20F889
:10040000022B11F0804F18BF00F8012B7047704786
:100410007047704700487047100000207546FFF78E
:10042000F9FFAE4605006946534620F007008546B1
:1004300018B020B5FFF73AFFBDE820404FF00006A6
:100440004FF000074FF000084FF0000BAC46ACE84F
:10045000C009ACE8C009ACE8C009ACE8C00921F0AB
:1004600007018D46704710B50446AFF30080204663
:10047000BDE81040FFF705BF01491820ABBEFEE7FD
:100480002600020070470000FEE7000040F2A410C2
:10049000C2F2000000F088B940F2A410C2F20000DD
:1004A00000F082B940F2CC10C2F2000000F07CB93A
:1004B00040F2CC10C2F2000000F076B970470000A4
:1004C00090F82020013A012A08D8006800F11402AF
:1004D0000020136819431160704700BF00F1240227
:1004E00001204FF480211368194311607047000008
:1004F00010B590F820E0D0F800C0AEF1010EBEF1CA
:10050000010FDCF808E011D81EF0E05F18D0CEF340
:1005100001640120A04018608B68DBB1D1F804E0D1
:10052000C86840EACE0040EA030E17E000F1240359
:1005300001204FF480211A681143196010BD00BFDB
:1005400000F1240301204FF400111A6811431960CF
:1005500010BD00BF0868CB6843EA405E0CF5C07070
:1005600000EB0413240140F804E00C69184640F83D
:10057000044F097D012903D1016841F480710160B4
:1005800050680121D8601068986000201A681143F3
:10059000196010BD90F82020013A012A30D8B0B57A
:1005A00046F20060C4F20000026842F001020260FC
:1005B000026822F47C520260D1F814E0CC694A6AE5
:1005C0000368012C43EA022202600EF01F024FF082
:1005D000010303FA02F2C3696FEA020C23EA020381
:1005E000C36113D02CBBC36803EA0C03C360CB68A0
:1005F0008C8844EA034300EBCE0423640B4611E0ED
:10060000416A41F48021416201207047C36813436D
:10061000C3600B688C8844EA034300EBCE04236478
:1006200001F10C038C681B8843EA044300EBCE0401
:10063000636443688D6943EA0204D1F810E0096AF3
:10064000002D08BF03EA0C0444604369BEF1000FAB
:1006500043EA020408BF03EA0C040129446102D101
:10066000C1691143C161016821F0010101600020ED
:10067000B0BD000070470000B0B590F82040013CCC
:10068000012C7DD8D0F800C000290CBFDCF80C404C
:10069000DCF81040A4077DD00CF5D8754FEA011C9A
:1006A00055F80C4014F00404946055F80CE005EB88
:1006B000011C19BF4FEADE0555604FEA5E55156013
:1006C000DCF80050E64605F00205D5605EF8044F00
:1006D00024075ABFDEF8004004F00F040824146118
:1006E000DEF800400029C4F307249461DEF80050CE
:1006F0004FEA15455561DCF808201A70026802EBD4
:100700000112D2F8B8214FEA12225A70026802EBA5
:100710000112D2F8B8214FEA12429A70026802EB35
:100720000112D2F8B8214FEA1262DA70026802EBC5
:100730000112D2F8BC211A71026802EB0112D2F840
:10074000BC214FEA12225A71026802EB0112D2F860
:10075000BC214FEA12429A71026802EB0112D2F8F0
:10076000BC214FEA1262DA7100680CBF00F10C0183
:1007700000F11001002020220B681A430A60B0BD6E
:1007800000F1240101204FF480220B681A430A6013
:10079000B0BD00BF00F1240101204FF400120B682E
:1007A0001A430A60B0BD00002DE9F04F81B0044645
:1007B00000684669D0F804908768D0F80CB0D0F88B
:1007C00010A0D0F81880F10704D1002530071DD4FF
:1007D00024E000BFF90710D00121BA07816009D4D5
:1007E000780700F1AF80380700F1B680204600F0AE
:1007F000B3FA02E0204600F0B1FA0025F80500F156
:100800008780F80300F1B180300707D51BF0100096
:1008100004D0206845F400751021C160700708D528
:100820001BF0080005D020680821C160204600F0B8
:10083000FFF9B00706D52068C068800702D02046BF
:1008400000F0F8F9700607D51AF0100004D02068FF
:1008500045F4806510210161B00608D51AF0080042
:1008600005D0206808210161204600F007FAF00653
:1008700006D520680069800702D0204600F000FA03
:10088000B00308D519F0100005D020681021416090
:10089000204600F031FAF00308D519F0080005D021
:1008A000206808214160204600F062FA300440F1DF
:1008B0009B805FEA497040F1948006F4807008EAFA
:1008C000102028435FEA8871014648BF41F00201C9
:1008D000B20558BF01465FEA48700D4648BF45F073
:1008E0000405700558BF0D46300540F17A8018F0B8
:1008F000700000F076801038000905286CD8DFE819
:1009000000F003655D61596945F0080564E000BFCA
:1009100020684FF48071BA0581600BD4780515D436
:1009200038051DD4204600F01BFAF8037FF56CAFA4
:100930001BE000BF204600F015FAF8037FF564AF16
:1009400013E000BF4FF4006558E700BF05F5005500
:10095000F8037FF559AF08E04FF480554EE700BF2C
:1009600005F58045F8037FF54FAF20684FF48031DF
:10097000BA0381600AD4780310D4380314D4204613
:1009800000F0F2F930073FF541AF47E7204600F0AD
:10099000EDF930073FF53AAF40E700BF05F50045F8
:1009A00030073FF533AF39E705F5803530073FF5C0
:1009B0002DAF33E745F080050EE000BF45F0200580
:1009C0000AE000BF45F0400506E000BF45F0100515
:1009D00002E000BF45F480752068816921F0700154
:1009E000816120680421416055B1606A40EA0501D7
:1009F0002046616201B0BDE8F04FFFF73BBE00BF8B
:100A000001B0BDE8F08F0000002804BF012070474E
:100A1000B0B5044690F8200010B9204600F06EF8FA
:100A20002068016841F00101016000F0E1FA05462B
:100A300020684168C90705D100F0DAFA401B0B288D
:100A4000F6D310E0016821F00201016000F0D0FA55
:100A5000054600BF2068416889070DD500F0C8FA37
:100A6000401B0B28F6D3606A052140F40030606219
:100A7000012084F82010B0BD217E0268012922F0F7
:100A8000800208BF80320260617E0268012922F084
:100A9000400208BF40320260A17E0268012922F0B4
:100AA000200208BF20320260E17E0268012922F0A4
:100AB000100218BF10320260217F0268012922F063
:100AC000080208BF08320260617F0268012922F033
:100AD000040208BF04320260D4E901C2D4E903353C
:100AE00061691A432A431143ACF101021143C16108
:100AF00000200121606284F82010B0BDB0B586B03E
:100B0000006846F60002C4F2000200219042CDE9DE
:100B10000411CDE90211019134D046F20041C4F232
:100B20000001884240F0828040F23C21C2F2000184
:100B30000A6843F64000C4F20200531C0B6052B92D
:100B400000210091016841F000710160016801F02D
:100B50000071009100990021009150F8101C15249B
:100B600041F0010140F8101C50F8100C142500F061
:100B700001000090009800204FF4C051C4F2020020
:100B800038E000BF43F64000C4F202000091016863
:100B900041F080610160016801F08061009100997D
:100BA00040F23C21C2F200010A68531C0B6052B9AA
:100BB00000210091016841F000710160016801F0BD
:100BC0000071009100990021009150F8101C4124FF
:100BD00041F0020140F8101C50F8100C402500F0C4
:100BE0000200009000980020C4F2020000F580602E
:100BF0004FF4405101910221029100210391032100
:100C000004910921059101A900F022F9284600214B
:100C1000002200F07BFB284600F066FB2046002106
:100C2000002200F073FB204600F05EFB06B0B0BD72
:100C30007047000010B540F2EC04C2F2000404F169
:100C4000580204F116030021FFF716FDA16D40F2D2
:100C50007002480901F01F01C2F2000201299070E0
:100C6000517018BF10BD40F26011C0B2C2F2000155
:100C700001EB4000818B0131818310BD7047000082
:100C8000F0B581B040F2EC0540F26014C2F200050C
:100C9000C2F2000405F11E0301212246FFF7ECFC1D
:100CA0002068092821D1E08D0130E085B5F91E00CA
:100CB000B5F9205001F0C5FF9FED0D0B54EC106B02
:100CC0003246234601F0E8FF01F08AFF40F2700748
:100CD000C2F200073861284601F0B3FF32462346CE
:100CE00001F0DAFF01F07CFF786501B0F0BD00BFD4
:100CF000000000000000B03F70470000B0B504469F
:100D000090F8200001281DD1022084F820002068DE
:100D1000016821F00101016000F06AF9054600BF99
:100D200020684068C00713D000F062F9401B0B2810
:100D3000F6D3606A40F400306062052084F8200039
:100D40000120B0BD606A40F4002060620120B0BDA7
:100D500000206062B0BD00007047000070470000D6
:100D600070470000704700007047000070470000A7
:100D70007047000070B5866D044600F039F994F8AC
:100D80003510022928D105462068216C026822F01E
:100D900016020260426922F08002426109B9A16C28
:100DA00019B1016821F008010160016821F0010119
:100DB000016000BF20680068C00715D000F018F976
:100DC000401B0628F6D320206065032084F83500F8
:100DD000002184F8341070BD80206065012000215E
:100DE00084F8341070BD00BFE06D3F2101FA00F0BF
:100DF000B060012084F835000020002184F8341010
:100E000070BD000090F83510022909D1052180F845
:100E100035100068016821F0010101600020704771
:100E20008021416501207047B0B5044600F0E0F82C
:100E3000054640F20000C2F200000078611C18BFB5
:100E4000044400BF00F0D4F8401BA042FAD3B0BD68
:100E50002DE9F04F83B000F1200200F13E4741F64A
:100E60000005009207F1FF77C4F2020507224FEA5E
:100E7000B726A84208BF062200254FF000084FF011
:100E80000009062E38BF4FEAB72201920AE000BFE0
:100E900009F1010908F10208B9F1100F05F1040583
:100EA00000F0A2800F68012202FA09FE17EA0E0A7A
:100EB000EED0D1F804C003220CF003077E1E02FA24
:100EC00008F4012E6FEA040B12D88468CE6804EA95
:100ED0000B0406FA08F634438460446824EA0E06DC
:100EE000CCF3001404FA09F42643466004E000BF82
:100EF000032F01D103271EE0C6688C6806EA0B06A3
:100F000004FA08F42643022FC66014D16FF00302DE
:100F1000009E02EA590756F807C005F01C040F228C
:100F20000B69A2402CEA0202A3401A43F251D1F805
:100F300004C00CF00307026807FA08F302EA0B0288
:100F40001A431CF4403F0260A2D0002243F644033F
:100F50000292C4F202031A6843F6004442F480424B
:100F60001A601A68C4F2010402F480420292029AE2
:100F700029F003024FF6084C2244CFF6FF7C52F8CA
:100F80000C3005F00C070F26BE40B343019E06FA55
:100F900007F73B4342F80C30A2684B6842EA0A0765
:100FA00043F60C4CDE0258BF22EA0A07A760C4F2DF
:100FB000010CDCF800209E0242EA0A0758BF22EA30
:100FC0000A07CCF8007062689E0342EA0A0758BF1D
:100FD00022EA0A0767602268DB0342EA0A0758BF71
:100FE00022EA0A07276053E703B0BDE8F08F00004C
:100FF00040F29420C2F2000000687047002804BF4D
:1010000001207047F0B581B0044690F83D0028B942
:10101000002084F83C00204600F0A2F8242084F848
:101020003D002068016821F001010160016841F480
:1010300000410160016821F40041016000F092FA72
:10104000636848F2A16CC0F2010C40F60011C0F2D6
:101050003D0163453CBF48F28041C0F21E01884219
:1010600002D2012001B0F0BD4DF68361C4F21B3104
:10107000A0FB01122168970CD1F804E04FF496769A
:101080002EF03F0545EA92454D60774348F6381605
:101090000D6AC0F24106A7FB067625F03F076345BF
:1010A00038BF960C721C3A430A62CA6948F2A066BD
:1010B0004CF6FF77C0F20106B34222EA07020BD8D2
:1010C00001385B00B0FBF3F001306FF31F300428F0
:1010D00098BF04201BE000BFA768013857B119274B
:1010E0007B43B0FBF3F001306FF31F3070B100F5BC
:1010F000804007E003EB4303B0FBF3F001306FF3F4
:101100001F3018B100F5004001E000BF012010437E
:10111000C8610868D4E9072320F0C00010431843D1
:101120000860886848F2FF3204F10C0790438CCFC6
:1011300018431043A6698860C86820F0FF00384350
:101140003043C860086840F001000860002020219A
:10115000206484F83D10206384F83E0001B0F0BDA7
:101160002DE9F04786B045F600460068C4F2000657
:101170000025B0420595CDE903550295019503D0B0
:1011800006B0BDE8F08700BF43F630070095C4F213
:101190000207386801AC40F00400386038684FF04E
:1011A000120800F0040000900098009538684FF095
:1011B000030940F00100386038684FF0040A00F07D
:1011C0000100009000984FF40070019006F5D630B1
:1011D0002146CDE90285CDF81090CDF814A0FFF797
:1011E00037FE4FF48070CDE9010803A880E820069F
:1011F00006F5D2302146FFF72BFE0095386940F402
:1012000000003861386900F400000090009806B0D2
:10121000BDE8F08740F2000040F29421C2F20000E5
:10122000C2F2000100780A681044086070470000AC
:1012300080B543F60040C4F20200016841F4007139
:101240000160016841F480610160016841F48071CE
:101250000160032000F086F80F2000F005F800F090
:1012600027F8002080BD000070B540F20006C2F2F1
:10127000000640F208013278C2F200014FF47A739E
:101280000968B3FBF2F20446B1FBF2F1084600F044
:10129000D1FB0F2C4FF0010508D838B94FF0FF30C3
:1012A00021460022002500F031F87460284670BD08
:1012B00082B0002043F640010190C4F202014A6866
:1012C00042F480424A604A6802F480420192019AE4
:1012D0000090086840F080500860086800F0805076
:1012E0000090009802B07047002848BF704700F097
:1012F0001F01012202FA01F11C2202EAD0004EF283
:101300000012CEF2000281507047000010B54EF678
:101310000C5CCEF2000CDCF80030C3F3022E8EF031
:101320000704042C28BF0424BEF103034FF0FF3E42
:101330000EFA04F438BF0023A14399400EFA03F3D8
:101340009A43114300F00F0200F160430901043A8F
:1013500003F564436244002848BF02F10C0319708E
:1013600010BD00004EF60C51CEF200010A684FF697
:10137000FF031A4060F30A2242F0806040F0FD70E3
:101380000860704770B582B00020019043F64000BD
:10139000C4F202000168402641F0805101600068FB
:1013A000C4F20E2600F080500190019847F2040527
:1013B0000120C4F200053060FFF71AFE044600BFAA
:1013C0002868C00306D4FFF713FE001BB0F57A7F30
:1013D000F6D90EE001207060FFF70AFE044600BF58
:1013E0002868800308D4FFF703FE001BB0F57A7F5E
:1013F000F6D9032002B070BD002002B070BD00001D
:10140000002804BF012070472DE9F04143F6080889
:10141000C4F202080446D8F8F8030D4600F00F00A5
:10142000884207D288F8F853D8F8F80300F00F0084
:10143000A84277D12068810717D5410705D5D8F88C
:10144000001041F4E051C8F80010010705D5D8F8A4
:10145000001041F46041C8F80010D8F80010A268EC
:1014600021F0F0011143C8F80010C00740D1D8F8AE
:10147000F80300F00F00A84207D988F8F853D8F80D
:10148000F80300F00F00A8424CD12068410707D5AF
:10149000D8F80010E26821F4E0511143C8F80010B8
:1014A000000708D5D8F80000216920F4604040EA20
:1014B000C100C8F8000000F07DF8D8F8001042F62E
:1014C000B862C1F30311C0F60002515C40F2080299
:1014D00020FA01F140F20400C2F200000068C2F2FA
:1014E00000021160FFF7C0FE0020BDE8F08100BFE0
:1014F0006068811E022907D258F8081C89015CBF68
:101500000120BDE8F08111E0012807D158F8081C3E
:1015100089035CBF0120BDE8F08107E058F8081C92
:10152000890703D40120BDE8F08100BFD8F800107E
:1015300021F003010843C8F80000FFF759FD0646F3
:1015400041F28837D8F80000616800F00C00B0EB79
:10155000810F8CD0FFF74CFD801BB842F2D90320DD
:10156000BDE8F08140F2080043F60801C2F2000035
:10157000C4F202010068096842F6C862C1F3822120
:10158000C0F60002515CC8407047000040F20800FD
:1015900043F60801C2F20000C4F2020100680968C3
:1015A00042F6C862C1F34231C0F60002515CC84045
:1015B0007047000010B543F60404C4F202046068EA
:1015C000C0F3810142F20040C0F2F400DFE801F014
:1015D0004202081841F20020C0F27A0010BD00BF9C
:1015E000216801F03F02216823684902C3F3881192
:1015F00016D4A1FB00010023FEF76AFE17E000BF2E
:10160000216801F03F02216823684902C3F3881171
:1016100014D4A1FB00010023FEF75AFE15E000BF21
:1016200041F20020C0F27A004843B0FBF2F021689A
:101630000222C1F3014102EB410109E041F2002025
:10164000C0F27A004843B0FBF2F02168C1F30271A6
:10165000B0FBF1F010BD0000002804BF012070476E
:101660002DE9F04182B00446007843F60006C00739
:10167000C4F202060CD0B06800F00C00042840F060
:1016800089803068800303D56068002800F05081AD
:101690002078800723D5B06810F00C0F11D0B06807
:1016A00000F00C00082802D17068400209D5B0682B
:1016B00000F00C000C2840F09F807068400200F1A0
:1016C0009B803068800703D5E068012840F03081B6
:1016D0003068216920F0F80040EAC10030602078CD
:1016E000000713D4207840072AD4A569002D00F004
:1016F0001A81B06800F00C00082840F0AB80012D82
:1017000040F0E880012002B0BDE8F0816069002867
:1017100040F20000C4F2472000F088800121C0F8A8
:10172000801EFFF765FC0546706F8007DAD4FFF76F
:101730005FFC401B0228F7D9032002B0BDE8F0810E
:10174000306C5FEAC0080AD400200190306C40F091
:1017500080503064306C00F080500190019847F266
:101760000007C4F200073868C00537D4386840F471
:1017700080703860FFF73CFC054600BF3868C00544
:101780002CD4FFF735FC401B0228F7D9032002B008
:10179000BDE8F081B06800F00C00082803D1706843
:1017A00040023FF56EAFB06800F00C000C2803D18A
:1017B000706840023FF565AF61683068B1F5803F01
:1017C00007D0B1F5A02F40F0CB8040F480203060EE
:1017D000306840F480303060CBE000BFA168306FEB
:1017E000012905D0052957D140F004003067306F3A
:1017F00040F00100306759E0E068002800F09C806C
:101800000020C4F2472001210160FFF7F1FB0546EB
:10181000306880073FF55CAFFFF7EAFB401B02280A
:101820004FF00300F4D902B0BDE8F0810021C0F808
:10183000801EFFF7DDFB0546706F80077FF552AF16
:10184000FFF7D6FB401B0228F6D9032002B0BDE803
:10185000F08100BF0027C4F2472700203866FFF759
:10186000C7FB022D05460BD13068800140F1928004
:10187000FFF7BEFB401B02284FF00300F4D9D2E76C
:10188000306880014FD5FFF7B3FB401B02284FF0B3
:101890000300F5D9C7E700BF20F001003067306FC3
:1018A000002920F00400306700F09880FFF7A0FBCB
:1018B000054641F2883700BF306F800700F1A080F5
:1018C000FFF796FB401BB842F6D9032002B0BDE8F3
:1018D000F08100BF7068E16900F480028A4227D17C
:1018E000216A00F03F028A4222D147F6C071626A43
:1018F0000140B1EB821F1BD1A16A4FF6FF73C903F0
:10190000994300F44032A1F580318A4210D1E16A56
:1019100000F07062B2EB016F0AD1216B00F0E04081
:10192000B0EB017F04D1002002B0BDE8F08100BF20
:10193000012002B0BDE8F0810020C4F24720002160
:101940000160FFF755FB0546306880077FF5C7AE9D
:10195000FFF74EFB401B02284FF00300F4D962E76B
:1019600020F4803030603068002920F4802030601E
:1019700050D0FFF73DFB0546306880033FF588AE49
:10198000FFF736FB401B6428F6D9032002B0BDE800
:10199000F08100BF04F11C052FCD246B084340EA01
:1019A0008210D9034FF6FF729143A1F5803140EACE
:1019B0000560084340EA0470706001203866FFF754
:1019C00017FB044630688001ADD4FFF711FB001B04
:1019D00002284FF00300F5D925E700BFFFF708FB09
:1019E000054641F2883700BF306F800708D5FFF702
:1019F000FFFA401BB8424FF00300F5D913E700BFD0
:101A0000B8F1000F3FF571AE306C20F080503064BB
:101A10006BE600BFFFF7ECFA054600BF30688003B5
:101A20007FF536AEFFF7E4FA401B64284FF0030061
:101A3000F4D9F8E6411E0020B0EB116F1CBF012065
:101A400070474EF21002CEF2000251604EF6235162
:101A5000CEF20001F0230B700721906011607047F7
:101A60007047000070470000B0B582B001680A6896
:101A7000CC684B6902F02F05202D04F0200505D11C
:101A800025B102B0BDE8B04000F0D2BB5FEA027CF5
:101A90001EBF03F0010E04F4907313EB0E0341D14B
:101AA000036BD50618D5012B16D114F0100313D0F3
:101AB000002201920A6801924A680192019A4969DA
:101AC00049064BD4818DC28DC38D002B18BF914226
:101AD00040F0F48102B0B0BD13062DD514F08003A0
:101AE0002AD090F84120212AF4D18268B2F5805F93
:101AF00003D10269002A00F06782026A531C036264
:101B000012784A60C28C013A1304C284E2D1C868D8
:101B100020F08000C860C86840F04000C86002B093
:101B2000B0BD00BFD30718BF14F4807340F0D0805D
:101B3000530700F1D380D8E05206CBD514F0400211
:101B4000C8D0CA6822F04002CA60202180F8411043
:101B500002B0BDE8B04000F0E9BA00BFC16B0A684E
:101B6000526893B2002BB5D0858DAB42B2D2C285FC
:101B7000C969B1F5807F00F0A080016851E8031FBA
:101B8000026821F4807142E80313DBB1016851E877
:101B9000031F026821F4807142E8031393B10168C6
:101BA00051E8031F026821F4807142E803134BB12E
:101BB000016851E8031F026821F4807142E80313B1
:101BC000002BDAD1016851E8051F026821F00101FC
:101BD00042E80513BBB3016851E8051F026821F014
:101BE000010142E8051373B3016851E8051F02685B
:101BF00021F0010142E805132BB3016851E8051FEC
:101C0000026821F0010142E80513002BDAD11AE045
:101C1000016851E8051F026821F0400142E8051300
:101C2000DBB1016851E8051F026821F0400142E87C
:101C3000051393B1016851E8051F026821F04001C6
:101C400042E805134BB1016851E8051F026821F015
:101C5000400142E80513002BDAD1202180F8421020
:101C600000210163016851E8031F026821F010019F
:101C700042E80313DBB1016851E8031F026821F059
:101C8000100142E8031393B1016851E8031F026891
:101C900021F0100142E803134BB1016851E8031F22
:101CA000026821F0100142E80313002BDAD1C16B66
:101CB00004460846FFF75EF8204602214163818D05
:101CC000C28D891A89B202B0BDE8B040FFF7C8BE24
:101CD000436C43F001034364530706D5BEF1000F84
:101CE00003D0436C43F002034364930706D5BEF16F
:101CF000000F03D0436C43F004034364BCF1000FB6
:101D000006D55EEA050303D0436C43F00803436441
:101D1000436C002B3FF4DEAE920605D525B1044698
:101D200000F086FA216820464969426C01F04001C2
:101D300002F00802891800F0B98000BF016851E87C
:101D4000031F026821F4907142E80313BBB30168DA
:101D500051E8031F026821F4907142E8031373B342
:101D6000016851E8031F026821F4907142E80313EF
:101D70002BB3016851E8031F026821F4907142E817
:101D80000313002BDAD11AE0016851E8051F02683D
:101D900021F0010142E80513DBB1016851E8051F9C
:101DA000026821F0010142E8051393B1016851E88E
:101DB000051F026821F0010142E805134BB10168DB
:101DC00051E8051F026821F0010142E80513002BCC
:101DD000DAD1016B012924D1016851E8031F02689F
:101DE00021F0100142E80313DBB1016851E8031F41
:101DF000026821F0100142E8031393B1016851E831
:101E0000031F026821F0100142E803134BB101687F
:101E100051E8031F026821F0100142E80313002B70
:101E2000DAD1202180F8421000210163016849695C
:101E3000490640F1C380016851E8051F026821F09E
:101E4000400142E80513DBB1016851E8051F026853
:101E500021F0400142E8051393B1016851E8051FE4
:101E6000026821F0400142E805134BB1016851E8D6
:101E7000051F026821F0400142E80513002BDAD16A
:101E8000C16B002900F09A8042F22522C0F60002C0
:101E9000044608460A65FEF7B5FF00283FF41AAE6F
:101EA000E06B016D02B0BDE8B04008470446FFF7A3
:101EB000D9FD0020606402B0B0BD00BF891A00BF28
:101EC000026852E8032F036822F4907243E8032566
:101ED000BDB3026852E8032F036822F4907243E80E
:101EE000032575B3026852E8032F036822F4907249
:101EF00043E803252DB3026852E8032F036822F458
:101F0000907243E80325002DDAD11AE0026852E806
:101F1000052F036822F0010243E80525DDB10268C0
:101F200052E8052F036822F0010243E8052595B128
:101F3000026852E8052F036822F0010243E80525F4
:101F40004DB1026852E8052F036822F0010243E810
:101F50000525002DDAD1202280F8422000220263DC
:101F6000026852E8032F036822F0100243E80325B9
:101F7000DDB1026852E8032F036822F0100243E843
:101F8000032595B1026852E8032F036822F010027E
:101F900043E803254DB1026852E8032F036822F09D
:101FA000100243E80325002DDAD1022289B24263F0
:101FB00002B0BDE8B040FFF753BD00BF02B0BDE8BE
:101FC000B040FFF74FBD00BF026A32F8023B6FF32B
:101FD0005F234B60026295E5002804BF0120704733
:101FE00010B5044690F8410028B9002084F840005C
:101FF000204600F021F8242084F841002068C168C0
:1020000021F40051C160204600F092F92068016976
:1020100021F490410161416921F02A014161C168C7
:1020200041F40051C16000202021606484F8411017
:1020300084F84210606310BD80B586B044F600415C
:102040000068C4F20001002288420592CDE9032213
:102050000292019202D006B080BD00BF43F630006C
:102060000092C4F20200036943F400230361036990
:1020700003F400230093009B0092036843F00103E4
:1020800003600068022300F0010000900098032024
:10209000019004900820059001F5DA3001A9CDE9FE
:1020A0000232FEF7D5FE342000210022FFF72EF980
:1020B0003420FFF719F906B080BD000090F84230D7
:1020C000202B07D100294FF0010318BF002A05D1AA
:1020D0001846704702231846704700BF0023036369
:1020E000816222218285C285436480F842100169A1
:1020F000006819B1C16841F48071C160416941F063
:1021000001014161C16841F02001C160184670477A
:1021100040F2CC1040F2EC01C2F20000C2F2000129
:1021200028300E310822FFF7C9BF000070470000B9
:10213000FEE70000FEE70000FEE700007047000039
:1021400070470000FFF766B810B594B007AC2046A2
:102150003421FEF735F9002043F640010690CDE921
:102160000400CDE902000190C4F202010A6842F0C5
:1021700080520A60096801F0805101910199019033
:1021800047F20000C4F20000016841F440410160E0
:1021900000684FF4800100F4404001900198012054
:1021A00007904FF480300E910421089002200F9187
:1021B000B4210D90CDE91010CDE912002046FFF7B3
:1021C0004BFA18B172B600BFFEE700BFFFF7DAF8AE
:1021D00010B172B6FEE700BF0F20029002200390FC
:1021E000002004904FF4A05005904FF480500690CA
:1021F00002A80521FFF704F910B172B6FEE700BF8F
:1022000014B010BD4EF68850CEF20000016841F4C3
:10221000700101607047000040F2F410C2F200004B
:10222000FFF722BC806B0021C185C184FFF71ABC77
:1022300081B090F84210222921D183680246B3F57B
:10224000805F09D152F8281F52F8183C002B63D048
:1022500003685B680AE000BF52F8281F13B90369DE
:10226000002BF5D003685B6803F07F030B701168E7
:1022700001311160C18D01390A04C18502D001B05C
:10228000704700BF0168CA6822F02002CA60CA68AD
:1022900022F48072CA604A6922F001024A61202158
:1022A00080F8421000214163026B012A3CD1016396
:1022B000016851E8031F026821F0100142E803138E
:1022C000DBB1016851E8031F026821F0100142E808
:1022D000031393B1016851E8031F026821F0100154
:1022E00042E803134BB1016851E8031F026821F073
:1022F000100142E80313002BDAD101680A68D20604
:1023000006D5002200920A6800924968009100995F
:10231000818D01B0FFF7A4BB026852686FF35F22A2
:1023200021F8022B8162A5E701B0FFF7F1BE0000A2
:10233000B0B50446006804F108030ECB05691943E3
:1023400025F440552A4302616269E3691143C2687A
:10235000194349F20C639A431143C1604169A26970
:1023600021F4407141F20043114340F48062C4F211
:1023700001039A42416103D1FFF708F902E000BF6F
:10238000FFF7F0F8E1694FF69C7563681922C0F613
:10239000FF75B1F5004FA0FB02011FD15A00DB0F02
:1023A000FDF796FF48F21F51C5F2EB11A0FB012388
:1023B0005A0905F1805302FB0300322303EBC000EE
:1023C000A0FB01014FF4F87000EA111000EB0210BD
:1023D000C1F34211084421688860B0BD9A009B0F88
:1023E000FDF776FF48F21F51C5F2EB11A0FB012368
:1023F0005A0902FB0500322303EB0010A0FB010188
:10240000F02000EA511000EB0210C1F34311084420
:1024100021688860B0BD0000FEE7000000000000F9
:102420002DE9F04F81B040F27008C2F2000898F830
:10243000031098F80800884200F0A08198F807106F
:102440005A2940F09B8198F80610012940F09681A6
:10245000002800F01B8102286AD0012840F08A8100
:1024600098F8050000F004FC9FEDC90B57EC109B99
:102470004A463B4600F010FC00F0B2FB40F2EC0490
:10248000C2F2000444F8280FA0602D202546A8F8C9
:102490000E0045F8180F00260420C4E9096040F238
:1024A0006010C2F2000000F1440B08F1580A5846CF
:1024B000294622465346E661FEF71AF80520FEF744
:1024C000B3FC4D20A8F80E0028600420C4E9096080
:1024D0005846294622465346A6602660E661FEF726
:1024E00007F80520FEF7A0FC98F8050000F0C0FBF7
:1024F0004A463B4600F0D0FB00F072FBA060206033
:102500006D20A8F80E0028600420C4E90960584630
:10251000294622465346E661FDF7EAFF0520FEF70D
:1025200083FC98F8050000F0A3FB9FED970B66E095
:1025300098F8050000F09CFB9FED930B57EC109B67
:102540004A463B4600F0A8FB00F04AFB40F2EC0490
:10255000C2F2000444F8280FA0602D202546A8F8F8
:102560000E0045F8180F00260420C4E9096040F267
:102570006010C2F2000000F1440B08F1580A5846FE
:10258000294622465346E661FDF7B2FF0520FEF7D5
:102590004BFC4D20A8F80E0028600420C4E9096017
:1025A0005846294622465346A6602660E661FDF756
:1025B0009FFF0520FEF738FC98F8050000F058FB57
:1025C0004A463B4600F068FB00F00AFBA060206032
:1025D0006D20A8F80E0028600420C4E90960584660
:1025E000294622465346E661FDF782FF0520FEF7A5
:1025F0001BFC98F8050000F03BFB9FED650B53ECCE
:10260000109B4A46009300F047FB00F0E9FAA060F7
:1026100020608D20A8F80E0028600427584629461F
:1026200022465346E661C4E90967FDF761FF0520CC
:10263000FEF7FAFBAD20A8F80E00286058462946A0
:1026400022465346A6602660E661C4E9096704276E
:10265000FDF74EFF0520FEF7E7FB98F8050000F0B8
:1026600007FB009B4A4600F017FB00F0B9FAA06098
:102670002060CD20A8F80E002860E661C4E9096753
:1026800058462946224653466FE000BF40F2EC040C
:10269000C2F200042D2044F8400FA8F80E0040F2CA
:1026A0006010C2F2000000F1440608F1580500274E
:1026B0004FF004093046214600222B4644F8107C96
:1026C00044F8187C6760C4E90379FDF711FF052021
:1026D000FEF7AAFB4D20A8F80E00C4E9000730461B
:1026E000214600222B46C4E90379FDF701FF0520AE
:1026F000FEF79AFB6D20A8F80E00C4E900073046EB
:10270000214600222B46C4E90379FDF7F1FE05209E
:10271000FEF78AFB8D20A8F80E00C4E900073046BA
:10272000214600222B46C4E90379FDF7E1FE05208E
:10273000FEF77AFBAD20A8F80E00C4E9000730468A
:10274000214600222B46C4E90379FDF7D1FE05207E
:10275000FEF76AFBCD20A8F80E00C4E9000730465A
:10276000214600222B46C4E90379FDF7C1FE05206E
:10277000FEF75AFB98F8080088F8030001B0BDE89E
:10278000F08F00BF00BF00BF000000000000E03F6E
:10279000000000000000E0BF8AB044F60044C4F22C
:1027A0000004FEF745FDFFF7CFFC002543F630009F
:1027B0000095C4F20200016840F2CC1641F080019D
:1027C00001600168C2F2000601F0800100910099E9
:1027D000009501680C2241F001010160016801F0DF
:1027E0000101009100990095016841F0020101602A
:1027F000016801F00201009100990095016841F023
:102800000401016000684FF4E13100F00400009021
:102810000098304640F8284FC0E90115C0E903553B
:10282000C0E90525C561FFF7D7FB18B172B600BF37
:10283000FEE700BF40F2402004F58051C2F20000E4
:1028400048F2A0624FF48043C0F2010280E8260003
:10285000C0E90353C0E90555C0E90755FEF7CEFBB3
:1028600010B172B6FEE700BF40F26017C2F2000777
:1028700004F5C051384640F8441F4FF00C0A0025BB
:102880004FF4202B4FF40019C0E901A5C0E9035B08
:10289000C0E905958583FEF7B7F818B172B600BF99
:1028A000FEE700BF0E2044374FF00108099069464B
:1028B0003846CDF82080CDE90055CDE90255CDE967
:1028C0000455CDE90658FDF765FE04F5E050C6E96C
:1028D000000A3046C6E90255C6E904B9B561B583B8
:1028E000FEF792F810B172B6FEE700BF0E20CDE9F8
:1028F00004804FF00009099069463046CDF82080E9
:10290000CDE90099CDE90299CDE90698FDF742FE9F
:1029100040F2EC05C2F2000506F1280005F10E01B7
:102920000822FFF7CBFB3846FEF7E8F93046FEF702
:10293000E5F96420FEF778FA38460221FDF7C0FD7C
:1029400030461021FDF7BCFD41F28830FEF76CFAED
:1029500040F20C00C2F2000000682E4640F2700403
:1029600046F8280FC2F200044FF0270ABB4637464C
:1029700047F818AF042004F15808C6E909905846F2
:10298000394632464346A4F80AA0C6F81C90FDF723
:10299000AFFD0A20FEF748FA40F20C00C2F2000038
:1029A0000068394630600420C6E90990584632462E
:1029B0004346A4F80AA0C7F800A0C6F81C90FDF78B
:1029C00097FD0A20FEF730FA40F20C00C2F2000038
:1029D00000684FF0670A30600420C6E90990584645
:1029E000394632464346A4F80AA0C7F800A0C6F804
:1029F0001C90FDF77DFD0A20FEF716FA40F20C0050
:102A0000C2F200000068394630600420C6E909902F
:102A1000584632464346A4F80AA0C7F800A0C6F8B4
:102A20001C90FDF765FD0A20FEF7FEF940F20C0050
:102A3000C2F2000000684FF0870A30600420C6E947
:102A400009905846394632464346A4F80AA0C7F8CA
:102A500000A0C6F81C90FDF74BFD0A20FEF7E4F934
:102A600040F20C00C2F200000068394630600420D9
:102A7000C6E90990584632464346A4F80AA0C7F86A
:102A800000A0C6F81C90FDF733FD0A20FEF7CCF934
:102A900040F20C00C2F2000000684FF0C70A30603C
:102AA0000420C6E909905846394632464346A4F800
:102AB0000AA0C7F800A0C6F81C90FDF719FD0A206F
:102AC000FEF7B2F940F20C00C2F20000006839468D
:102AD00030600420C6E90990584632464346A4F8BF
:102AE0000AA0C7F800A0C6F81C90FDF701FD0A2057
:102AF000FEF79AF940F20C00C2F2000000684FF0B5
:102B0000E70A30600420C6E9099058463946324643
:102B10004346A4F80AA0C7F800A0C6F81C90FDF729
:102B2000E7FC0A20FEF780F940F20C00C2F2000038
:102B30000068394630600420C6E90990584632469C
:102B40004346A4F80AA0C7F800A0C6F81C90FDF7F9
:102B5000CFFC0A20FEF768F940F20C00C2F2000038
:102B6000006840F2071A30600420C6E90990584610
:102B7000394632464346A4F80AA0C7F800A0C6F872
:102B80001C90FDF7B5FC0A20FEF74EF940F20C0050
:102B9000C2F200000068394630600420C6E909909E
:102BA000584632464346A4F80AA0C7F800A0C6F823
:102BB0001C90FDF79DFC0A20FEF736F902E000BFED
:102BC000FFF72EFCA87BAA28FAD1687DFF28F7D151
:102BD000E87B297D207128692170C4F80500EFE7A2
:102BE00021F0004201F00043A2F16052B2F5801FD3
:102BF00028BFD2F17F6C0BD95FEA001C43EAC20206
:102C000042EB507018BF704728BF20F0010070479A
:102C1000B2F5801FBCBF184670474FEA410C1CF547
:102C2000001F02D2084600F042B970B500F0DEF88D
:102C300000000089FFF7F6BF4FF00040A0F58000CC
:102C4000704710F0004248BF4042B0FA80F310FADB
:102C500003F10AD0C3F11D0303F5806302EB0352B5
:102C60004FEA415002EBD12170474FF0000070470E
:102C7000B0FA80F310FA03F10AD0C3F11D0303F593
:102C800080634FEA03524FEA415002EBD121704773
:102C90004FF000007047000070B5DFF848C11CEA33
:102CA000111E1EBF1CEA13159EEA0C0F95EA0C0FAD
:102CB00000F06F8081EA03044EEAD47EAE4421EA3C
:102CC0004C1123EA4C1341F4801143F48013AEF10C
:102CD0007F7EA1FB024CA0FB0365361955EB0C056A
:102CE000A1FB034C4CF10003A0FB021C16EB0C06ED
:102CF000654153F10003094218BF46F0010613F481
:102D0000007F0BD14FEA03314FEA053041EA1551FC
:102D100040EA165034036FF003020AE04FEAC32181
:102D20004FEAC52041EA555140EA5650F4026FF08F
:102D3000020202EB2E4201EB025585EACE710AD067
:102D40005FEA440C18BF24F0004450F1000041F148
:102D5000000120EAD47040F2FE7C624500D270BDD2
:102D6000A84214BF4FF080444FF04044002E08BFEB
:102D70000024BEF1806FA8BFA1F1C041BDE8704042
:102D800080F2828001F1C04101F000414FF000006B
:102D900070470CEA13159EEA0C0F18BF95EA0C0F4A
:102DA00006D081EA030E4FF000000EF0004170BD26
:102DB00000F01CF88900013E00F007B800F009B8E7
:102DC0004FEA430C5FEA5C5C08D081EA030100F043
:102DD0005BB84FEA410C5FEA5C5CF6D102494FF008
:102DE000000070470000FF070000F87F0EF1020EA0
:102DF0002EF0030E5EF8046B364205D4012A43EB35
:102E0000030515F5001F12D8012841EB010C1CF534
:102E1000001F0CD80ED14FEAD17C0CEB4C0C0CF1FE
:102E2000020C15F5001F08BF4CEBD37C04E04FF0FB
:102E3000080C01E04FEAD37C0CEB4C0526FA05F6B2
:102E400006F00706B6F1040C06D20EEB860CBDE8C0
:102E500070404CF0010C6047DFE80CF0090B0202F7
:102E60004FF00041A1F500214FF0000070BD194660
:102E70001046012851EB010418BFD4F5001484BF9B
:102E8000002001F0004170BD0808A0F500114FEAD4
:102E900031017047F1EE100A4FF6FF71C0F2C031F8
:102EA00020EA010040F04070E1EE100A7047FF2177
:102EB00041EAD050C005704700000000000000004B
:102EC00001020304060708090000000001020304D0
:102ED000F02E00080000002010000000280200086A
:102EE000002F000810000020880800004802000899
:102EF00001000000100000000024F40008000000A1
:04000005080001C529
:00000001FF
